{
  "_format": "hh-sol-artifact-1",
  "contractName": "Web3Mint",
  "sourceName": "contracts/Web3Mint.sol",
  "abi": [
    {
      "inputs": [],
      "stateMutability": "nonpayable",
      "type": "constructor"
    },
    {
      "anonymous": false,
      "inputs": [
        {
          "indexed": true,
          "internalType": "address",
          "name": "owner",
          "type": "address"
        },
        {
          "indexed": true,
          "internalType": "address",
          "name": "approved",
          "type": "address"
        },
        {
          "indexed": true,
          "internalType": "uint256",
          "name": "tokenId",
          "type": "uint256"
        }
      ],
      "name": "Approval",
      "type": "event"
    },
    {
      "anonymous": false,
      "inputs": [
        {
          "indexed": true,
          "internalType": "address",
          "name": "owner",
          "type": "address"
        },
        {
          "indexed": true,
          "internalType": "address",
          "name": "operator",
          "type": "address"
        },
        {
          "indexed": false,
          "internalType": "bool",
          "name": "approved",
          "type": "bool"
        }
      ],
      "name": "ApprovalForAll",
      "type": "event"
    },
    {
      "anonymous": false,
      "inputs": [
        {
          "indexed": false,
          "internalType": "address",
          "name": "sender",
          "type": "address"
        },
        {
          "indexed": false,
          "internalType": "uint256",
          "name": "tokenId",
          "type": "uint256"
        }
      ],
      "name": "NewEpicNFTMinted",
      "type": "event"
    },
    {
      "anonymous": false,
      "inputs": [
        {
          "indexed": true,
          "internalType": "address",
          "name": "from",
          "type": "address"
        },
        {
          "indexed": true,
          "internalType": "address",
          "name": "to",
          "type": "address"
        },
        {
          "indexed": true,
          "internalType": "uint256",
          "name": "tokenId",
          "type": "uint256"
        }
      ],
      "name": "Transfer",
      "type": "event"
    },
    {
      "inputs": [
        {
          "internalType": "address",
          "name": "to",
          "type": "address"
        },
        {
          "internalType": "uint256",
          "name": "tokenId",
          "type": "uint256"
        }
      ],
      "name": "approve",
      "outputs": [],
      "stateMutability": "nonpayable",
      "type": "function"
    },
    {
      "inputs": [
        {
          "internalType": "address",
          "name": "owner",
          "type": "address"
        }
      ],
      "name": "balanceOf",
      "outputs": [
        {
          "internalType": "uint256",
          "name": "",
          "type": "uint256"
        }
      ],
      "stateMutability": "view",
      "type": "function"
    },
    {
      "inputs": [
        {
          "internalType": "uint256",
          "name": "tokenId",
          "type": "uint256"
        }
      ],
      "name": "getApproved",
      "outputs": [
        {
          "internalType": "address",
          "name": "",
          "type": "address"
        }
      ],
      "stateMutability": "view",
      "type": "function"
    },
    {
      "inputs": [
        {
          "internalType": "address",
          "name": "owner",
          "type": "address"
        },
        {
          "internalType": "address",
          "name": "operator",
          "type": "address"
        }
      ],
      "name": "isApprovedForAll",
      "outputs": [
        {
          "internalType": "bool",
          "name": "",
          "type": "bool"
        }
      ],
      "stateMutability": "view",
      "type": "function"
    },
    {
      "inputs": [],
      "name": "makeAnEpicNFT",
      "outputs": [],
      "stateMutability": "nonpayable",
      "type": "function"
    },
    {
      "inputs": [
        {
          "internalType": "string",
          "name": "name",
          "type": "string"
        },
        {
          "internalType": "string",
          "name": "imageURI",
          "type": "string"
        }
      ],
      "name": "mintIpfsNFT",
      "outputs": [],
      "stateMutability": "nonpayable",
      "type": "function"
    },
    {
      "inputs": [],
      "name": "name",
      "outputs": [
        {
          "internalType": "string",
          "name": "",
          "type": "string"
        }
      ],
      "stateMutability": "view",
      "type": "function"
    },
    {
      "inputs": [
        {
          "internalType": "uint256",
          "name": "tokenId",
          "type": "uint256"
        }
      ],
      "name": "ownerOf",
      "outputs": [
        {
          "internalType": "address",
          "name": "",
          "type": "address"
        }
      ],
      "stateMutability": "view",
      "type": "function"
    },
    {
      "inputs": [
        {
          "internalType": "address",
          "name": "from",
          "type": "address"
        },
        {
          "internalType": "address",
          "name": "to",
          "type": "address"
        },
        {
          "internalType": "uint256",
          "name": "tokenId",
          "type": "uint256"
        }
      ],
      "name": "safeTransferFrom",
      "outputs": [],
      "stateMutability": "nonpayable",
      "type": "function"
    },
    {
      "inputs": [
        {
          "internalType": "address",
          "name": "from",
          "type": "address"
        },
        {
          "internalType": "address",
          "name": "to",
          "type": "address"
        },
        {
          "internalType": "uint256",
          "name": "tokenId",
          "type": "uint256"
        },
        {
          "internalType": "bytes",
          "name": "data",
          "type": "bytes"
        }
      ],
      "name": "safeTransferFrom",
      "outputs": [],
      "stateMutability": "nonpayable",
      "type": "function"
    },
    {
      "inputs": [
        {
          "internalType": "address",
          "name": "operator",
          "type": "address"
        },
        {
          "internalType": "bool",
          "name": "approved",
          "type": "bool"
        }
      ],
      "name": "setApprovalForAll",
      "outputs": [],
      "stateMutability": "nonpayable",
      "type": "function"
    },
    {
      "inputs": [
        {
          "internalType": "bytes4",
          "name": "interfaceId",
          "type": "bytes4"
        }
      ],
      "name": "supportsInterface",
      "outputs": [
        {
          "internalType": "bool",
          "name": "",
          "type": "bool"
        }
      ],
      "stateMutability": "view",
      "type": "function"
    },
    {
      "inputs": [],
      "name": "symbol",
      "outputs": [
        {
          "internalType": "string",
          "name": "",
          "type": "string"
        }
      ],
      "stateMutability": "view",
      "type": "function"
    },
    {
      "inputs": [
        {
          "internalType": "uint256",
          "name": "_tokenId",
          "type": "uint256"
        }
      ],
      "name": "tokenURI",
      "outputs": [
        {
          "internalType": "string",
          "name": "",
          "type": "string"
        }
      ],
      "stateMutability": "view",
      "type": "function"
    },
    {
      "inputs": [
        {
          "internalType": "address",
          "name": "from",
          "type": "address"
        },
        {
          "internalType": "address",
          "name": "to",
          "type": "address"
        },
        {
          "internalType": "uint256",
          "name": "tokenId",
          "type": "uint256"
        }
      ],
      "name": "transferFrom",
      "outputs": [],
      "stateMutability": "nonpayable",
      "type": "function"
    }
  ],
  "bytecode": "0x60806040523480156200001157600080fd5b506040518060400160405280600581526020017f4d794e46540000000000000000000000000000000000000000000000000000008152506040518060400160405280600481526020017f4d4e46540000000000000000000000000000000000000000000000000000000081525081600090816200008f91906200043b565b508060019081620000a191906200043b565b505050620000ef6040518060400160405280601781526020017f54686973206973206d79204e465420636f6e7472616374000000000000000000815250620000f560201b62000b871760201c565b620005d5565b62000195816040516024016200010c9190620005b1565b6040516020818303038152906040527f41304fac000000000000000000000000000000000000000000000000000000007bffffffffffffffffffffffffffffffffffffffffffffffffffffffff19166020820180517bffffffffffffffffffffffffffffffffffffffffffffffffffffffff83818316178352505050506200019860201b60201c565b50565b60008151905060006a636f6e736f6c652e6c6f679050602083016000808483855afa5050505050565b600081519050919050565b7f4e487b7100000000000000000000000000000000000000000000000000000000600052604160045260246000fd5b7f4e487b7100000000000000000000000000000000000000000000000000000000600052602260045260246000fd5b600060028204905060018216806200024357607f821691505b602082108103620002595762000258620001fb565b5b50919050565b60008190508160005260206000209050919050565b60006020601f8301049050919050565b600082821b905092915050565b600060088302620002c37fffffffffffffffffffffffffffffffffffffffffffffffffffffffffffffffff8262000284565b620002cf868362000284565b95508019841693508086168417925050509392505050565b6000819050919050565b6000819050919050565b60006200031c620003166200031084620002e7565b620002f1565b620002e7565b9050919050565b6000819050919050565b6200033883620002fb565b62000350620003478262000323565b84845462000291565b825550505050565b600090565b6200036762000358565b620003748184846200032d565b505050565b5b818110156200039c57620003906000826200035d565b6001810190506200037a565b5050565b601f821115620003eb57620003b5816200025f565b620003c08462000274565b81016020851015620003d0578190505b620003e8620003df8562000274565b83018262000379565b50505b505050565b600082821c905092915050565b60006200041060001984600802620003f0565b1980831691505092915050565b60006200042b8383620003fd565b9150826002028217905092915050565b6200044682620001c1565b67ffffffffffffffff811115620004625762000461620001cc565b5b6200046e82546200022a565b6200047b828285620003a0565b600060209050601f831160018114620004b357600084156200049e578287015190505b620004aa85826200041d565b8655506200051a565b601f198416620004c3866200025f565b60005b82811015620004ed57848901518255600182019150602085019450602081019050620004c6565b868310156200050d578489015162000509601f891682620003fd565b8355505b6001600288020188555050505b505050505050565b600082825260208201905092915050565b60005b838110156200055357808201518184015260208101905062000536565b60008484015250505050565b6000601f19601f8301169050919050565b60006200057d82620001c1565b62000589818562000522565b93506200059b81856020860162000533565b620005a6816200055f565b840191505092915050565b60006020820190508181036000830152620005cd818462000570565b905092915050565b6131b280620005e56000396000f3fe608060405234801561001057600080fd5b50600436106100f55760003560e01c806370a0823111610097578063c87b56dd11610066578063c87b56dd14610282578063de9d132f146102b2578063e985e9c5146102bc578063eb00195d146102ec576100f5565b806370a08231146101fc57806395d89b411461022c578063a22cb4651461024a578063b88d4fde14610266576100f5565b8063095ea7b3116100d3578063095ea7b31461017857806323b872dd1461019457806342842e0e146101b05780636352211e146101cc576100f5565b806301ffc9a7146100fa57806306fdde031461012a578063081812fc14610148575b600080fd5b610114600480360381019061010f9190611b87565b610308565b6040516101219190611bcf565b60405180910390f35b6101326103ea565b60405161013f9190611c7a565b60405180910390f35b610162600480360381019061015d9190611cd2565b61047c565b60405161016f9190611d40565b60405180910390f35b610192600480360381019061018d9190611d87565b6104c2565b005b6101ae60048036038101906101a99190611dc7565b6105d9565b005b6101ca60048036038101906101c59190611dc7565b610639565b005b6101e660048036038101906101e19190611cd2565b610659565b6040516101f39190611d40565b60405180910390f35b61021660048036038101906102119190611e1a565b61070a565b6040516102239190611e56565b60405180910390f35b6102346107c1565b6040516102419190611c7a565b60405180910390f35b610264600480360381019061025f9190611e9d565b610853565b005b610280600480360381019061027b9190612012565b610869565b005b61029c60048036038101906102979190611cd2565b6108cb565b6040516102a99190611c7a565b60405180910390f35b6102ba61097b565b005b6102d660048036038101906102d19190612095565b610a02565b6040516102e39190611bcf565b60405180910390f35b61030660048036038101906103019190612176565b610a96565b005b60007f80ac58cd000000000000000000000000000000000000000000000000000000007bffffffffffffffffffffffffffffffffffffffffffffffffffffffff1916827bffffffffffffffffffffffffffffffffffffffffffffffffffffffff191614806103d357507f5b5e139f000000000000000000000000000000000000000000000000000000007bffffffffffffffffffffffffffffffffffffffffffffffffffffffff1916827bffffffffffffffffffffffffffffffffffffffffffffffffffffffff1916145b806103e357506103e282610c20565b5b9050919050565b6060600080546103f99061221d565b80601f01602080910402602001604051908101604052809291908181526020018280546104259061221d565b80156104725780601f1061044757610100808354040283529160200191610472565b820191906000526020600020905b81548152906001019060200180831161045557829003601f168201915b5050505050905090565b600061048782610c8a565b6004600083815260200190815260200160002060009054906101000a900473ffffffffffffffffffffffffffffffffffffffff169050919050565b60006104cd82610659565b90508073ffffffffffffffffffffffffffffffffffffffff168373ffffffffffffffffffffffffffffffffffffffff160361053d576040517f08c379a0000000000000000000000000000000000000000000000000000000008152600401610534906122c0565b60405180910390fd5b8073ffffffffffffffffffffffffffffffffffffffff1661055c610cd5565b73ffffffffffffffffffffffffffffffffffffffff16148061058b575061058a81610585610cd5565b610a02565b5b6105ca576040517f08c379a00000000000000000000000000000000000000000000000000000000081526004016105c190612352565b60405180910390fd5b6105d48383610cdd565b505050565b6105ea6105e4610cd5565b82610d96565b610629576040517f08c379a0000000000000000000000000000000000000000000000000000000008152600401610620906123e4565b60405180910390fd5b610634838383610e2b565b505050565b61065483838360405180602001604052806000815250610869565b505050565b6000806002600084815260200190815260200160002060009054906101000a900473ffffffffffffffffffffffffffffffffffffffff169050600073ffffffffffffffffffffffffffffffffffffffff168173ffffffffffffffffffffffffffffffffffffffff1603610701576040517f08c379a00000000000000000000000000000000000000000000000000000000081526004016106f890612450565b60405180910390fd5b80915050919050565b60008073ffffffffffffffffffffffffffffffffffffffff168273ffffffffffffffffffffffffffffffffffffffff160361077a576040517f08c379a0000000000000000000000000000000000000000000000000000000008152600401610771906124e2565b60405180910390fd5b600360008373ffffffffffffffffffffffffffffffffffffffff1673ffffffffffffffffffffffffffffffffffffffff168152602001908152602001600020549050919050565b6060600180546107d09061221d565b80601f01602080910402602001604051908101604052809291908181526020018280546107fc9061221d565b80156108495780601f1061081e57610100808354040283529160200191610849565b820191906000526020600020905b81548152906001019060200180831161082c57829003601f168201915b5050505050905090565b61086561085e610cd5565b8383611091565b5050565b61087a610874610cd5565b83610d96565b6108b9576040517f08c379a00000000000000000000000000000000000000000000000000000000081526004016108b0906123e4565b60405180910390fd5b6108c5848484846111fd565b50505050565b6060600061094b600784815481106108e6576108e5612502565b5b906000526020600020906002020160000161090085611259565b6007868154811061091457610913612502565b5b90600052602060002090600202016001016040516020016109379392919061275b565b6040516020818303038152906040526113b9565b90506000816040516020016109609190612804565b60405160208183030381529060405290508092505050919050565b60006109876008611550565b9050610993338261155e565b6109d2816040518060400160405280601d81526020017f68747470733a2f2f6a736f6e6b65657065722e636f6d2f622f5438514300000081525061157c565b6109f56040518060600160405280602581526020016131186025913982336115e9565b6109ff6008611688565b50565b6000600560008473ffffffffffffffffffffffffffffffffffffffff1673ffffffffffffffffffffffffffffffffffffffff16815260200190815260200160002060008373ffffffffffffffffffffffffffffffffffffffff1673ffffffffffffffffffffffffffffffffffffffff16815260200190815260200160002060009054906101000a900460ff16905092915050565b6000610aa26008611550565b9050610aae338261155e565b600760405180604001604052808581526020018481525090806001815401808255809150506001900390600052602060002090600202016000909190919091506000820151816000019081610b0391906129bd565b506020820151816001019081610b1991906129bd565b505050610b3f6040518060600160405280602581526020016131186025913982336115e9565b610b496008611688565b7febb98688741ffa4c7589bf325de30cf7becb63de567842e1ccdb6cb949fdc82c3382604051610b7a929190612a8f565b60405180910390a1505050565b610c1d81604051602401610b9b9190611c7a565b6040516020818303038152906040527f41304fac000000000000000000000000000000000000000000000000000000007bffffffffffffffffffffffffffffffffffffffffffffffffffffffff19166020820180517bffffffffffffffffffffffffffffffffffffffffffffffffffffffff838183161783525050505061169e565b50565b60007f01ffc9a7000000000000000000000000000000000000000000000000000000007bffffffffffffffffffffffffffffffffffffffffffffffffffffffff1916827bffffffffffffffffffffffffffffffffffffffffffffffffffffffff1916149050919050565b610c93816116c7565b610cd2576040517f08c379a0000000000000000000000000000000000000000000000000000000008152600401610cc990612450565b60405180910390fd5b50565b600033905090565b816004600083815260200190815260200160002060006101000a81548173ffffffffffffffffffffffffffffffffffffffff021916908373ffffffffffffffffffffffffffffffffffffffff160217905550808273ffffffffffffffffffffffffffffffffffffffff16610d5083610659565b73ffffffffffffffffffffffffffffffffffffffff167f8c5be1e5ebec7d5bd14f71427d1e84f3dd0314c0f7b2291e5b200ac8c7c3b92560405160405180910390a45050565b600080610da283610659565b90508073ffffffffffffffffffffffffffffffffffffffff168473ffffffffffffffffffffffffffffffffffffffff161480610de45750610de38185610a02565b5b80610e2257508373ffffffffffffffffffffffffffffffffffffffff16610e0a8461047c565b73ffffffffffffffffffffffffffffffffffffffff16145b91505092915050565b8273ffffffffffffffffffffffffffffffffffffffff16610e4b82610659565b73ffffffffffffffffffffffffffffffffffffffff1614610ea1576040517f08c379a0000000000000000000000000000000000000000000000000000000008152600401610e9890612b2a565b60405180910390fd5b600073ffffffffffffffffffffffffffffffffffffffff168273ffffffffffffffffffffffffffffffffffffffff1603610f10576040517f08c379a0000000000000000000000000000000000000000000000000000000008152600401610f0790612bbc565b60405180910390fd5b610f1b838383611733565b610f26600082610cdd565b6001600360008573ffffffffffffffffffffffffffffffffffffffff1673ffffffffffffffffffffffffffffffffffffffff1681526020019081526020016000206000828254610f769190612c0b565b925050819055506001600360008473ffffffffffffffffffffffffffffffffffffffff1673ffffffffffffffffffffffffffffffffffffffff1681526020019081526020016000206000828254610fcd9190612c3f565b92505081905550816002600083815260200190815260200160002060006101000a81548173ffffffffffffffffffffffffffffffffffffffff021916908373ffffffffffffffffffffffffffffffffffffffff160217905550808273ffffffffffffffffffffffffffffffffffffffff168473ffffffffffffffffffffffffffffffffffffffff167fddf252ad1be2c89b69c2b068fc378daa952ba7f163c4a11628f55a4df523b3ef60405160405180910390a461108c838383611738565b505050565b8173ffffffffffffffffffffffffffffffffffffffff168373ffffffffffffffffffffffffffffffffffffffff16036110ff576040517f08c379a00000000000000000000000000000000000000000000000000000000081526004016110f690612cbf565b60405180910390fd5b80600560008573ffffffffffffffffffffffffffffffffffffffff1673ffffffffffffffffffffffffffffffffffffffff16815260200190815260200160002060008473ffffffffffffffffffffffffffffffffffffffff1673ffffffffffffffffffffffffffffffffffffffff16815260200190815260200160002060006101000a81548160ff0219169083151502179055508173ffffffffffffffffffffffffffffffffffffffff168373ffffffffffffffffffffffffffffffffffffffff167f17307eab39ab6107e8899845ad3d59bd9653f200f220920489ca2b5937696c31836040516111f09190611bcf565b60405180910390a3505050565b611208848484610e2b565b6112148484848461173d565b611253576040517f08c379a000000000000000000000000000000000000000000000000000000000815260040161124a90612d51565b60405180910390fd5b50505050565b6060600082036112a0576040518060400160405280600181526020017f300000000000000000000000000000000000000000000000000000000000000081525090506113b4565b600082905060005b600082146112d25780806112bb90612d71565b915050600a826112cb9190612de8565b91506112a8565b60008167ffffffffffffffff8111156112ee576112ed611ee7565b5b6040519080825280601f01601f1916602001820160405280156113205781602001600182028036833780820191505090505b5090505b600085146113ad576001826113399190612c0b565b9150600a856113489190612e19565b60306113549190612c3f565b60f81b81838151811061136a57611369612502565b5b60200101907effffffffffffffffffffffffffffffffffffffffffffffffffffffffffffff1916908160001a905350600a856113a69190612de8565b9450611324565b8093505050505b919050565b6060600082519050600081036113e1576040518060200160405280600081525091505061154b565b600060036002836113f29190612c3f565b6113fc9190612de8565b60046114089190612e4a565b905060006020826114199190612c3f565b67ffffffffffffffff81111561143257611431611ee7565b5b6040519080825280601f01601f1916602001820160405280156114645781602001600182028036833780820191505090505b509050600060405180606001604052806040815260200161313d604091399050600181016020830160005b868110156115085760038101905062ffffff818a015116603f8160121c168401518060081b905060ff603f83600c1c1686015116810190508060081b905060ff603f8360061c1686015116810190508060081b905060ff603f831686015116810190508060e01b9050808452600484019350505061148f565b50600386066001811461152257600281146115325761153d565b613d3d60f01b600283035261153d565b603d60f81b60018303525b508484525050819450505050505b919050565b600081600001549050919050565b6115788282604051806020016040528060008152506118c4565b5050565b611585826116c7565b6115c4576040517f08c379a00000000000000000000000000000000000000000000000000000000081526004016115bb90612efe565b60405180910390fd5b806006600084815260200190815260200160002090816115e491906129bd565b505050565b61168383838360405160240161160193929190612f1e565b6040516020818303038152906040527f1c7ec448000000000000000000000000000000000000000000000000000000007bffffffffffffffffffffffffffffffffffffffffffffffffffffffff19166020820180517bffffffffffffffffffffffffffffffffffffffffffffffffffffffff838183161783525050505061169e565b505050565b6001816000016000828254019250508190555050565b60008151905060006a636f6e736f6c652e6c6f679050602083016000808483855afa5050505050565b60008073ffffffffffffffffffffffffffffffffffffffff166002600084815260200190815260200160002060009054906101000a900473ffffffffffffffffffffffffffffffffffffffff1673ffffffffffffffffffffffffffffffffffffffff1614159050919050565b505050565b505050565b600061175e8473ffffffffffffffffffffffffffffffffffffffff1661191f565b156118b7578373ffffffffffffffffffffffffffffffffffffffff1663150b7a02611787610cd5565b8786866040518563ffffffff1660e01b81526004016117a99493929190612fb1565b6020604051808303816000875af19250505080156117e557506040513d601f19601f820116820180604052508101906117e29190613012565b60015b611867573d8060008114611815576040519150601f19603f3d011682016040523d82523d6000602084013e61181a565b606091505b50600081510361185f576040517f08c379a000000000000000000000000000000000000000000000000000000000815260040161185690612d51565b60405180910390fd5b805181602001fd5b63150b7a0260e01b7bffffffffffffffffffffffffffffffffffffffffffffffffffffffff1916817bffffffffffffffffffffffffffffffffffffffffffffffffffffffff1916149150506118bc565b600190505b949350505050565b6118ce8383611942565b6118db600084848461173d565b61191a576040517f08c379a000000000000000000000000000000000000000000000000000000000815260040161191190612d51565b60405180910390fd5b505050565b6000808273ffffffffffffffffffffffffffffffffffffffff163b119050919050565b600073ffffffffffffffffffffffffffffffffffffffff168273ffffffffffffffffffffffffffffffffffffffff16036119b1576040517f08c379a00000000000000000000000000000000000000000000000000000000081526004016119a89061308b565b60405180910390fd5b6119ba816116c7565b156119fa576040517f08c379a00000000000000000000000000000000000000000000000000000000081526004016119f1906130f7565b60405180910390fd5b611a0660008383611733565b6001600360008473ffffffffffffffffffffffffffffffffffffffff1673ffffffffffffffffffffffffffffffffffffffff1681526020019081526020016000206000828254611a569190612c3f565b92505081905550816002600083815260200190815260200160002060006101000a81548173ffffffffffffffffffffffffffffffffffffffff021916908373ffffffffffffffffffffffffffffffffffffffff160217905550808273ffffffffffffffffffffffffffffffffffffffff16600073ffffffffffffffffffffffffffffffffffffffff167fddf252ad1be2c89b69c2b068fc378daa952ba7f163c4a11628f55a4df523b3ef60405160405180910390a4611b1760008383611738565b5050565b6000604051905090565b600080fd5b600080fd5b60007fffffffff0000000000000000000000000000000000000000000000000000000082169050919050565b611b6481611b2f565b8114611b6f57600080fd5b50565b600081359050611b8181611b5b565b92915050565b600060208284031215611b9d57611b9c611b25565b5b6000611bab84828501611b72565b91505092915050565b60008115159050919050565b611bc981611bb4565b82525050565b6000602082019050611be46000830184611bc0565b92915050565b600081519050919050565b600082825260208201905092915050565b60005b83811015611c24578082015181840152602081019050611c09565b60008484015250505050565b6000601f19601f8301169050919050565b6000611c4c82611bea565b611c568185611bf5565b9350611c66818560208601611c06565b611c6f81611c30565b840191505092915050565b60006020820190508181036000830152611c948184611c41565b905092915050565b6000819050919050565b611caf81611c9c565b8114611cba57600080fd5b50565b600081359050611ccc81611ca6565b92915050565b600060208284031215611ce857611ce7611b25565b5b6000611cf684828501611cbd565b91505092915050565b600073ffffffffffffffffffffffffffffffffffffffff82169050919050565b6000611d2a82611cff565b9050919050565b611d3a81611d1f565b82525050565b6000602082019050611d556000830184611d31565b92915050565b611d6481611d1f565b8114611d6f57600080fd5b50565b600081359050611d8181611d5b565b92915050565b60008060408385031215611d9e57611d9d611b25565b5b6000611dac85828601611d72565b9250506020611dbd85828601611cbd565b9150509250929050565b600080600060608486031215611de057611ddf611b25565b5b6000611dee86828701611d72565b9350506020611dff86828701611d72565b9250506040611e1086828701611cbd565b9150509250925092565b600060208284031215611e3057611e2f611b25565b5b6000611e3e84828501611d72565b91505092915050565b611e5081611c9c565b82525050565b6000602082019050611e6b6000830184611e47565b92915050565b611e7a81611bb4565b8114611e8557600080fd5b50565b600081359050611e9781611e71565b92915050565b60008060408385031215611eb457611eb3611b25565b5b6000611ec285828601611d72565b9250506020611ed385828601611e88565b9150509250929050565b600080fd5b600080fd5b7f4e487b7100000000000000000000000000000000000000000000000000000000600052604160045260246000fd5b611f1f82611c30565b810181811067ffffffffffffffff82111715611f3e57611f3d611ee7565b5b80604052505050565b6000611f51611b1b565b9050611f5d8282611f16565b919050565b600067ffffffffffffffff821115611f7d57611f7c611ee7565b5b611f8682611c30565b9050602081019050919050565b82818337600083830152505050565b6000611fb5611fb084611f62565b611f47565b905082815260208101848484011115611fd157611fd0611ee2565b5b611fdc848285611f93565b509392505050565b600082601f830112611ff957611ff8611edd565b5b8135612009848260208601611fa2565b91505092915050565b6000806000806080858703121561202c5761202b611b25565b5b600061203a87828801611d72565b945050602061204b87828801611d72565b935050604061205c87828801611cbd565b925050606085013567ffffffffffffffff81111561207d5761207c611b2a565b5b61208987828801611fe4565b91505092959194509250565b600080604083850312156120ac576120ab611b25565b5b60006120ba85828601611d72565b92505060206120cb85828601611d72565b9150509250929050565b600067ffffffffffffffff8211156120f0576120ef611ee7565b5b6120f982611c30565b9050602081019050919050565b6000612119612114846120d5565b611f47565b90508281526020810184848401111561213557612134611ee2565b5b612140848285611f93565b509392505050565b600082601f83011261215d5761215c611edd565b5b813561216d848260208601612106565b91505092915050565b6000806040838503121561218d5761218c611b25565b5b600083013567ffffffffffffffff8111156121ab576121aa611b2a565b5b6121b785828601612148565b925050602083013567ffffffffffffffff8111156121d8576121d7611b2a565b5b6121e485828601612148565b9150509250929050565b7f4e487b7100000000000000000000000000000000000000000000000000000000600052602260045260246000fd5b6000600282049050600182168061223557607f821691505b602082108103612248576122476121ee565b5b50919050565b7f4552433732313a20617070726f76616c20746f2063757272656e74206f776e6560008201527f7200000000000000000000000000000000000000000000000000000000000000602082015250565b60006122aa602183611bf5565b91506122b58261224e565b604082019050919050565b600060208201905081810360008301526122d98161229d565b9050919050565b7f4552433732313a20617070726f76652063616c6c6572206973206e6f7420746f60008201527f6b656e206f776e6572206e6f7220617070726f76656420666f7220616c6c0000602082015250565b600061233c603e83611bf5565b9150612347826122e0565b604082019050919050565b6000602082019050818103600083015261236b8161232f565b9050919050565b7f4552433732313a2063616c6c6572206973206e6f7420746f6b656e206f776e6560008201527f72206e6f7220617070726f766564000000000000000000000000000000000000602082015250565b60006123ce602e83611bf5565b91506123d982612372565b604082019050919050565b600060208201905081810360008301526123fd816123c1565b9050919050565b7f4552433732313a20696e76616c696420746f6b656e2049440000000000000000600082015250565b600061243a601883611bf5565b915061244582612404565b602082019050919050565b600060208201905081810360008301526124698161242d565b9050919050565b7f4552433732313a2061646472657373207a65726f206973206e6f74206120766160008201527f6c6964206f776e65720000000000000000000000000000000000000000000000602082015250565b60006124cc602983611bf5565b91506124d782612470565b604082019050919050565b600060208201905081810360008301526124fb816124bf565b9050919050565b7f4e487b7100000000000000000000000000000000000000000000000000000000600052603260045260246000fd5b600081905092915050565b7f7b226e616d65223a202200000000000000000000000000000000000000000000600082015250565b6000612572600a83612531565b915061257d8261253c565b600a82019050919050565b60008190508160005260206000209050919050565b600081546125aa8161221d565b6125b48186612531565b945060018216600081146125cf57600181146125e457612617565b60ff1983168652811515820286019350612617565b6125ed85612588565b60005b8381101561260f578154818901526001820191506020810190506125f0565b838801955050505b50505092915050565b7f202d2d204e465420233a20000000000000000000000000000000000000000000600082015250565b6000612656600b83612531565b915061266182612620565b600b82019050919050565b600061267782611bea565b6126818185612531565b9350612691818560208601611c06565b80840191505092915050565b7f222c20226465736372697074696f6e223a2022416e2065706963204e4654222c60008201527f2022696d616765223a2022697066733a2f2f0000000000000000000000000000602082015250565b60006126f9603283612531565b91506127048261269d565b603282019050919050565b7f227d000000000000000000000000000000000000000000000000000000000000600082015250565b6000612745600283612531565b91506127508261270f565b600282019050919050565b600061276682612565565b9150612772828661259d565b915061277d82612649565b9150612789828561266c565b9150612794826126ec565b91506127a0828461259d565b91506127ab82612738565b9150819050949350505050565b7f646174613a6170706c69636174696f6e2f6a736f6e3b6261736536342c000000600082015250565b60006127ee601d83612531565b91506127f9826127b8565b601d82019050919050565b600061280f826127e1565b915061281b828461266c565b915081905092915050565b60006020601f8301049050919050565b600082821b905092915050565b6000600883026128737fffffffffffffffffffffffffffffffffffffffffffffffffffffffffffffffff82612836565b61287d8683612836565b95508019841693508086168417925050509392505050565b6000819050919050565b60006128ba6128b56128b084611c9c565b612895565b611c9c565b9050919050565b6000819050919050565b6128d48361289f565b6128e86128e0826128c1565b848454612843565b825550505050565b600090565b6128fd6128f0565b6129088184846128cb565b505050565b5b8181101561292c576129216000826128f5565b60018101905061290e565b5050565b601f8211156129715761294281612588565b61294b84612826565b8101602085101561295a578190505b61296e61296685612826565b83018261290d565b50505b505050565b600082821c905092915050565b600061299460001984600802612976565b1980831691505092915050565b60006129ad8383612983565b9150826002028217905092915050565b6129c682611bea565b67ffffffffffffffff8111156129df576129de611ee7565b5b6129e9825461221d565b6129f4828285612930565b600060209050601f831160018114612a275760008415612a15578287015190505b612a1f85826129a1565b865550612a87565b601f198416612a3586612588565b60005b82811015612a5d57848901518255600182019150602085019450602081019050612a38565b86831015612a7a5784890151612a76601f891682612983565b8355505b6001600288020188555050505b505050505050565b6000604082019050612aa46000830185611d31565b612ab16020830184611e47565b9392505050565b7f4552433732313a207472616e736665722066726f6d20696e636f72726563742060008201527f6f776e6572000000000000000000000000000000000000000000000000000000602082015250565b6000612b14602583611bf5565b9150612b1f82612ab8565b604082019050919050565b60006020820190508181036000830152612b4381612b07565b9050919050565b7f4552433732313a207472616e7366657220746f20746865207a65726f2061646460008201527f7265737300000000000000000000000000000000000000000000000000000000602082015250565b6000612ba6602483611bf5565b9150612bb182612b4a565b604082019050919050565b60006020820190508181036000830152612bd581612b99565b9050919050565b7f4e487b7100000000000000000000000000000000000000000000000000000000600052601160045260246000fd5b6000612c1682611c9c565b9150612c2183611c9c565b9250828203905081811115612c3957612c38612bdc565b5b92915050565b6000612c4a82611c9c565b9150612c5583611c9c565b9250828201905080821115612c6d57612c6c612bdc565b5b92915050565b7f4552433732313a20617070726f766520746f2063616c6c657200000000000000600082015250565b6000612ca9601983611bf5565b9150612cb482612c73565b602082019050919050565b60006020820190508181036000830152612cd881612c9c565b9050919050565b7f4552433732313a207472616e7366657220746f206e6f6e20455243373231526560008201527f63656976657220696d706c656d656e7465720000000000000000000000000000602082015250565b6000612d3b603283611bf5565b9150612d4682612cdf565b604082019050919050565b60006020820190508181036000830152612d6a81612d2e565b9050919050565b6000612d7c82611c9c565b91507fffffffffffffffffffffffffffffffffffffffffffffffffffffffffffffffff8203612dae57612dad612bdc565b5b600182019050919050565b7f4e487b7100000000000000000000000000000000000000000000000000000000600052601260045260246000fd5b6000612df382611c9c565b9150612dfe83611c9c565b925082612e0e57612e0d612db9565b5b828204905092915050565b6000612e2482611c9c565b9150612e2f83611c9c565b925082612e3f57612e3e612db9565b5b828206905092915050565b6000612e5582611c9c565b9150612e6083611c9c565b9250828202612e6e81611c9c565b91508282048414831517612e8557612e84612bdc565b5b5092915050565b7f45524337323155524953746f726167653a2055524920736574206f66206e6f6e60008201527f6578697374656e7420746f6b656e000000000000000000000000000000000000602082015250565b6000612ee8602e83611bf5565b9150612ef382612e8c565b604082019050919050565b60006020820190508181036000830152612f1781612edb565b9050919050565b60006060820190508181036000830152612f388186611c41565b9050612f476020830185611e47565b612f546040830184611d31565b949350505050565b600081519050919050565b600082825260208201905092915050565b6000612f8382612f5c565b612f8d8185612f67565b9350612f9d818560208601611c06565b612fa681611c30565b840191505092915050565b6000608082019050612fc66000830187611d31565b612fd36020830186611d31565b612fe06040830185611e47565b8181036060830152612ff28184612f78565b905095945050505050565b60008151905061300c81611b5b565b92915050565b60006020828403121561302857613027611b25565b5b600061303684828501612ffd565b91505092915050565b7f4552433732313a206d696e7420746f20746865207a65726f2061646472657373600082015250565b6000613075602083611bf5565b91506130808261303f565b602082019050919050565b600060208201905081810360008301526130a481613068565b9050919050565b7f4552433732313a20746f6b656e20616c7265616479206d696e74656400000000600082015250565b60006130e1601c83611bf5565b91506130ec826130ab565b602082019050919050565b60006020820190508181036000830152613110816130d4565b905091905056fe416e204e465420772f20494420257320686173206265656e206d696e74656420746f2025734142434445464748494a4b4c4d4e4f505152535455565758595a6162636465666768696a6b6c6d6e6f707172737475767778797a303132333435363738392b2fa264697066735822122000d226ff5304d5d3468a7dcc38d59a67f24e8b9c57b970208ee66684dd08cda264736f6c63430008110033",
  "linkReferences": {},
  "deployedLinkReferences": {}
}