{
  "_format": "hh-sol-artifact-1",
  "contractName": "Web3Mint",
  "sourceName": "contracts/Web3Mint.sol",
  "abi": [
    {
      "inputs": [],
      "stateMutability": "nonpayable",
      "type": "constructor"
    },
    {
      "anonymous": false,
      "inputs": [
        {
          "indexed": true,
          "internalType": "address",
          "name": "owner",
          "type": "address"
        },
        {
          "indexed": true,
          "internalType": "address",
          "name": "approved",
          "type": "address"
        },
        {
          "indexed": true,
          "internalType": "uint256",
          "name": "tokenId",
          "type": "uint256"
        }
      ],
      "name": "Approval",
      "type": "event"
    },
    {
      "anonymous": false,
      "inputs": [
        {
          "indexed": true,
          "internalType": "address",
          "name": "owner",
          "type": "address"
        },
        {
          "indexed": true,
          "internalType": "address",
          "name": "operator",
          "type": "address"
        },
        {
          "indexed": false,
          "internalType": "bool",
          "name": "approved",
          "type": "bool"
        }
      ],
      "name": "ApprovalForAll",
      "type": "event"
    },
    {
      "anonymous": false,
      "inputs": [
        {
          "indexed": true,
          "internalType": "address",
          "name": "from",
          "type": "address"
        },
        {
          "indexed": true,
          "internalType": "address",
          "name": "to",
          "type": "address"
        },
        {
          "indexed": true,
          "internalType": "uint256",
          "name": "tokenId",
          "type": "uint256"
        }
      ],
      "name": "Transfer",
      "type": "event"
    },
    {
      "inputs": [
        {
          "internalType": "address",
          "name": "to",
          "type": "address"
        },
        {
          "internalType": "uint256",
          "name": "tokenId",
          "type": "uint256"
        }
      ],
      "name": "approve",
      "outputs": [],
      "stateMutability": "nonpayable",
      "type": "function"
    },
    {
      "inputs": [
        {
          "internalType": "address",
          "name": "owner",
          "type": "address"
        }
      ],
      "name": "balanceOf",
      "outputs": [
        {
          "internalType": "uint256",
          "name": "",
          "type": "uint256"
        }
      ],
      "stateMutability": "view",
      "type": "function"
    },
    {
      "inputs": [
        {
          "internalType": "uint256",
          "name": "tokenId",
          "type": "uint256"
        }
      ],
      "name": "getApproved",
      "outputs": [
        {
          "internalType": "address",
          "name": "",
          "type": "address"
        }
      ],
      "stateMutability": "view",
      "type": "function"
    },
    {
      "inputs": [
        {
          "internalType": "address",
          "name": "owner",
          "type": "address"
        },
        {
          "internalType": "address",
          "name": "operator",
          "type": "address"
        }
      ],
      "name": "isApprovedForAll",
      "outputs": [
        {
          "internalType": "bool",
          "name": "",
          "type": "bool"
        }
      ],
      "stateMutability": "view",
      "type": "function"
    },
    {
      "inputs": [],
      "name": "makeAnEpicNFT",
      "outputs": [],
      "stateMutability": "nonpayable",
      "type": "function"
    },
    {
      "inputs": [
        {
          "internalType": "string",
          "name": "name",
          "type": "string"
        },
        {
          "internalType": "string",
          "name": "imageURI",
          "type": "string"
        }
      ],
      "name": "mintIpfsNFT",
      "outputs": [],
      "stateMutability": "nonpayable",
      "type": "function"
    },
    {
      "inputs": [],
      "name": "name",
      "outputs": [
        {
          "internalType": "string",
          "name": "",
          "type": "string"
        }
      ],
      "stateMutability": "view",
      "type": "function"
    },
    {
      "inputs": [
        {
          "internalType": "uint256",
          "name": "tokenId",
          "type": "uint256"
        }
      ],
      "name": "ownerOf",
      "outputs": [
        {
          "internalType": "address",
          "name": "",
          "type": "address"
        }
      ],
      "stateMutability": "view",
      "type": "function"
    },
    {
      "inputs": [
        {
          "internalType": "address",
          "name": "from",
          "type": "address"
        },
        {
          "internalType": "address",
          "name": "to",
          "type": "address"
        },
        {
          "internalType": "uint256",
          "name": "tokenId",
          "type": "uint256"
        }
      ],
      "name": "safeTransferFrom",
      "outputs": [],
      "stateMutability": "nonpayable",
      "type": "function"
    },
    {
      "inputs": [
        {
          "internalType": "address",
          "name": "from",
          "type": "address"
        },
        {
          "internalType": "address",
          "name": "to",
          "type": "address"
        },
        {
          "internalType": "uint256",
          "name": "tokenId",
          "type": "uint256"
        },
        {
          "internalType": "bytes",
          "name": "data",
          "type": "bytes"
        }
      ],
      "name": "safeTransferFrom",
      "outputs": [],
      "stateMutability": "nonpayable",
      "type": "function"
    },
    {
      "inputs": [
        {
          "internalType": "address",
          "name": "operator",
          "type": "address"
        },
        {
          "internalType": "bool",
          "name": "approved",
          "type": "bool"
        }
      ],
      "name": "setApprovalForAll",
      "outputs": [],
      "stateMutability": "nonpayable",
      "type": "function"
    },
    {
      "inputs": [
        {
          "internalType": "bytes4",
          "name": "interfaceId",
          "type": "bytes4"
        }
      ],
      "name": "supportsInterface",
      "outputs": [
        {
          "internalType": "bool",
          "name": "",
          "type": "bool"
        }
      ],
      "stateMutability": "view",
      "type": "function"
    },
    {
      "inputs": [],
      "name": "symbol",
      "outputs": [
        {
          "internalType": "string",
          "name": "",
          "type": "string"
        }
      ],
      "stateMutability": "view",
      "type": "function"
    },
    {
      "inputs": [
        {
          "internalType": "uint256",
          "name": "_tokenId",
          "type": "uint256"
        }
      ],
      "name": "tokenURI",
      "outputs": [
        {
          "internalType": "string",
          "name": "",
          "type": "string"
        }
      ],
      "stateMutability": "view",
      "type": "function"
    },
    {
      "inputs": [
        {
          "internalType": "address",
          "name": "from",
          "type": "address"
        },
        {
          "internalType": "address",
          "name": "to",
          "type": "address"
        },
        {
          "internalType": "uint256",
          "name": "tokenId",
          "type": "uint256"
        }
      ],
      "name": "transferFrom",
      "outputs": [],
      "stateMutability": "nonpayable",
      "type": "function"
    }
  ],
  "bytecode": "0x60806040523480156200001157600080fd5b506040518060400160405280600581526020017f4d794e46540000000000000000000000000000000000000000000000000000008152506040518060400160405280600481526020017f4d4e46540000000000000000000000000000000000000000000000000000000081525081600090816200008f91906200043b565b508060019081620000a191906200043b565b505050620000ef6040518060400160405280601781526020017f54686973206973206d79204e465420636f6e7472616374000000000000000000815250620000f560201b62000b4e1760201c565b620005d5565b62000195816040516024016200010c9190620005b1565b6040516020818303038152906040527f41304fac000000000000000000000000000000000000000000000000000000007bffffffffffffffffffffffffffffffffffffffffffffffffffffffff19166020820180517bffffffffffffffffffffffffffffffffffffffffffffffffffffffff83818316178352505050506200019860201b60201c565b50565b60008151905060006a636f6e736f6c652e6c6f679050602083016000808483855afa5050505050565b600081519050919050565b7f4e487b7100000000000000000000000000000000000000000000000000000000600052604160045260246000fd5b7f4e487b7100000000000000000000000000000000000000000000000000000000600052602260045260246000fd5b600060028204905060018216806200024357607f821691505b602082108103620002595762000258620001fb565b5b50919050565b60008190508160005260206000209050919050565b60006020601f8301049050919050565b600082821b905092915050565b600060088302620002c37fffffffffffffffffffffffffffffffffffffffffffffffffffffffffffffffff8262000284565b620002cf868362000284565b95508019841693508086168417925050509392505050565b6000819050919050565b6000819050919050565b60006200031c620003166200031084620002e7565b620002f1565b620002e7565b9050919050565b6000819050919050565b6200033883620002fb565b62000350620003478262000323565b84845462000291565b825550505050565b600090565b6200036762000358565b620003748184846200032d565b505050565b5b818110156200039c57620003906000826200035d565b6001810190506200037a565b5050565b601f821115620003eb57620003b5816200025f565b620003c08462000274565b81016020851015620003d0578190505b620003e8620003df8562000274565b83018262000379565b50505b505050565b600082821c905092915050565b60006200041060001984600802620003f0565b1980831691505092915050565b60006200042b8383620003fd565b9150826002028217905092915050565b6200044682620001c1565b67ffffffffffffffff811115620004625762000461620001cc565b5b6200046e82546200022a565b6200047b828285620003a0565b600060209050601f831160018114620004b357600084156200049e578287015190505b620004aa85826200041d565b8655506200051a565b601f198416620004c3866200025f565b60005b82811015620004ed57848901518255600182019150602085019450602081019050620004c6565b868310156200050d578489015162000509601f891682620003fd565b8355505b6001600288020188555050505b505050505050565b600082825260208201905092915050565b60005b838110156200055357808201518184015260208101905062000536565b60008484015250505050565b6000601f19601f8301169050919050565b60006200057d82620001c1565b62000589818562000522565b93506200059b81856020860162000533565b620005a6816200055f565b840191505092915050565b60006020820190508181036000830152620005cd818462000570565b905092915050565b61315080620005e56000396000f3fe608060405234801561001057600080fd5b50600436106100f55760003560e01c806370a0823111610097578063c87b56dd11610066578063c87b56dd14610282578063de9d132f146102b2578063e985e9c5146102bc578063eb00195d146102ec576100f5565b806370a08231146101fc57806395d89b411461022c578063a22cb4651461024a578063b88d4fde14610266576100f5565b8063095ea7b3116100d3578063095ea7b31461017857806323b872dd1461019457806342842e0e146101b05780636352211e146101cc576100f5565b806301ffc9a7146100fa57806306fdde031461012a578063081812fc14610148575b600080fd5b610114600480360381019061010f9190611b4e565b610308565b6040516101219190611b96565b60405180910390f35b6101326103ea565b60405161013f9190611c41565b60405180910390f35b610162600480360381019061015d9190611c99565b61047c565b60405161016f9190611d07565b60405180910390f35b610192600480360381019061018d9190611d4e565b6104c2565b005b6101ae60048036038101906101a99190611d8e565b6105d9565b005b6101ca60048036038101906101c59190611d8e565b610639565b005b6101e660048036038101906101e19190611c99565b610659565b6040516101f39190611d07565b60405180910390f35b61021660048036038101906102119190611de1565b61070a565b6040516102239190611e1d565b60405180910390f35b6102346107c1565b6040516102419190611c41565b60405180910390f35b610264600480360381019061025f9190611e64565b610853565b005b610280600480360381019061027b9190611fd9565b610869565b005b61029c60048036038101906102979190611c99565b6108cb565b6040516102a99190611c41565b60405180910390f35b6102ba61097b565b005b6102d660048036038101906102d1919061205c565b610a02565b6040516102e39190611b96565b60405180910390f35b6103066004803603810190610301919061213d565b610a96565b005b60007f80ac58cd000000000000000000000000000000000000000000000000000000007bffffffffffffffffffffffffffffffffffffffffffffffffffffffff1916827bffffffffffffffffffffffffffffffffffffffffffffffffffffffff191614806103d357507f5b5e139f000000000000000000000000000000000000000000000000000000007bffffffffffffffffffffffffffffffffffffffffffffffffffffffff1916827bffffffffffffffffffffffffffffffffffffffffffffffffffffffff1916145b806103e357506103e282610be7565b5b9050919050565b6060600080546103f9906121e4565b80601f0160208091040260200160405190810160405280929190818152602001828054610425906121e4565b80156104725780601f1061044757610100808354040283529160200191610472565b820191906000526020600020905b81548152906001019060200180831161045557829003601f168201915b5050505050905090565b600061048782610c51565b6004600083815260200190815260200160002060009054906101000a900473ffffffffffffffffffffffffffffffffffffffff169050919050565b60006104cd82610659565b90508073ffffffffffffffffffffffffffffffffffffffff168373ffffffffffffffffffffffffffffffffffffffff160361053d576040517f08c379a000000000000000000000000000000000000000000000000000000000815260040161053490612287565b60405180910390fd5b8073ffffffffffffffffffffffffffffffffffffffff1661055c610c9c565b73ffffffffffffffffffffffffffffffffffffffff16148061058b575061058a81610585610c9c565b610a02565b5b6105ca576040517f08c379a00000000000000000000000000000000000000000000000000000000081526004016105c190612319565b60405180910390fd5b6105d48383610ca4565b505050565b6105ea6105e4610c9c565b82610d5d565b610629576040517f08c379a0000000000000000000000000000000000000000000000000000000008152600401610620906123ab565b60405180910390fd5b610634838383610df2565b505050565b61065483838360405180602001604052806000815250610869565b505050565b6000806002600084815260200190815260200160002060009054906101000a900473ffffffffffffffffffffffffffffffffffffffff169050600073ffffffffffffffffffffffffffffffffffffffff168173ffffffffffffffffffffffffffffffffffffffff1603610701576040517f08c379a00000000000000000000000000000000000000000000000000000000081526004016106f890612417565b60405180910390fd5b80915050919050565b60008073ffffffffffffffffffffffffffffffffffffffff168273ffffffffffffffffffffffffffffffffffffffff160361077a576040517f08c379a0000000000000000000000000000000000000000000000000000000008152600401610771906124a9565b60405180910390fd5b600360008373ffffffffffffffffffffffffffffffffffffffff1673ffffffffffffffffffffffffffffffffffffffff168152602001908152602001600020549050919050565b6060600180546107d0906121e4565b80601f01602080910402602001604051908101604052809291908181526020018280546107fc906121e4565b80156108495780601f1061081e57610100808354040283529160200191610849565b820191906000526020600020905b81548152906001019060200180831161082c57829003601f168201915b5050505050905090565b61086561085e610c9c565b8383611058565b5050565b61087a610874610c9c565b83610d5d565b6108b9576040517f08c379a00000000000000000000000000000000000000000000000000000000081526004016108b0906123ab565b60405180910390fd5b6108c5848484846111c4565b50505050565b6060600061094b600784815481106108e6576108e56124c9565b5b906000526020600020906002020160000161090085611220565b60078681548110610914576109136124c9565b5b906000526020600020906002020160010160405160200161093793929190612722565b604051602081830303815290604052611380565b905060008160405160200161096091906127cb565b60405160208183030381529060405290508092505050919050565b60006109876008611517565b90506109933382611525565b6109d2816040518060400160405280601d81526020017f68747470733a2f2f6a736f6e6b65657065722e636f6d2f622f54385143000000815250611543565b6109f56040518060600160405280602581526020016130b66025913982336115b0565b6109ff600861164f565b50565b6000600560008473ffffffffffffffffffffffffffffffffffffffff1673ffffffffffffffffffffffffffffffffffffffff16815260200190815260200160002060008373ffffffffffffffffffffffffffffffffffffffff1673ffffffffffffffffffffffffffffffffffffffff16815260200190815260200160002060009054906101000a900460ff16905092915050565b6000610aa26008611517565b9050610aae3382611525565b600760405180604001604052808581526020018481525090806001815401808255809150506001900390600052602060002090600202016000909190919091506000820151816000019081610b039190612984565b506020820151816001019081610b199190612984565b505050610b3f6040518060600160405280602581526020016130b66025913982336115b0565b610b49600861164f565b505050565b610be481604051602401610b629190611c41565b6040516020818303038152906040527f41304fac000000000000000000000000000000000000000000000000000000007bffffffffffffffffffffffffffffffffffffffffffffffffffffffff19166020820180517bffffffffffffffffffffffffffffffffffffffffffffffffffffffff8381831617835250505050611665565b50565b60007f01ffc9a7000000000000000000000000000000000000000000000000000000007bffffffffffffffffffffffffffffffffffffffffffffffffffffffff1916827bffffffffffffffffffffffffffffffffffffffffffffffffffffffff1916149050919050565b610c5a8161168e565b610c99576040517f08c379a0000000000000000000000000000000000000000000000000000000008152600401610c9090612417565b60405180910390fd5b50565b600033905090565b816004600083815260200190815260200160002060006101000a81548173ffffffffffffffffffffffffffffffffffffffff021916908373ffffffffffffffffffffffffffffffffffffffff160217905550808273ffffffffffffffffffffffffffffffffffffffff16610d1783610659565b73ffffffffffffffffffffffffffffffffffffffff167f8c5be1e5ebec7d5bd14f71427d1e84f3dd0314c0f7b2291e5b200ac8c7c3b92560405160405180910390a45050565b600080610d6983610659565b90508073ffffffffffffffffffffffffffffffffffffffff168473ffffffffffffffffffffffffffffffffffffffff161480610dab5750610daa8185610a02565b5b80610de957508373ffffffffffffffffffffffffffffffffffffffff16610dd18461047c565b73ffffffffffffffffffffffffffffffffffffffff16145b91505092915050565b8273ffffffffffffffffffffffffffffffffffffffff16610e1282610659565b73ffffffffffffffffffffffffffffffffffffffff1614610e68576040517f08c379a0000000000000000000000000000000000000000000000000000000008152600401610e5f90612ac8565b60405180910390fd5b600073ffffffffffffffffffffffffffffffffffffffff168273ffffffffffffffffffffffffffffffffffffffff1603610ed7576040517f08c379a0000000000000000000000000000000000000000000000000000000008152600401610ece90612b5a565b60405180910390fd5b610ee28383836116fa565b610eed600082610ca4565b6001600360008573ffffffffffffffffffffffffffffffffffffffff1673ffffffffffffffffffffffffffffffffffffffff1681526020019081526020016000206000828254610f3d9190612ba9565b925050819055506001600360008473ffffffffffffffffffffffffffffffffffffffff1673ffffffffffffffffffffffffffffffffffffffff1681526020019081526020016000206000828254610f949190612bdd565b92505081905550816002600083815260200190815260200160002060006101000a81548173ffffffffffffffffffffffffffffffffffffffff021916908373ffffffffffffffffffffffffffffffffffffffff160217905550808273ffffffffffffffffffffffffffffffffffffffff168473ffffffffffffffffffffffffffffffffffffffff167fddf252ad1be2c89b69c2b068fc378daa952ba7f163c4a11628f55a4df523b3ef60405160405180910390a46110538383836116ff565b505050565b8173ffffffffffffffffffffffffffffffffffffffff168373ffffffffffffffffffffffffffffffffffffffff16036110c6576040517f08c379a00000000000000000000000000000000000000000000000000000000081526004016110bd90612c5d565b60405180910390fd5b80600560008573ffffffffffffffffffffffffffffffffffffffff1673ffffffffffffffffffffffffffffffffffffffff16815260200190815260200160002060008473ffffffffffffffffffffffffffffffffffffffff1673ffffffffffffffffffffffffffffffffffffffff16815260200190815260200160002060006101000a81548160ff0219169083151502179055508173ffffffffffffffffffffffffffffffffffffffff168373ffffffffffffffffffffffffffffffffffffffff167f17307eab39ab6107e8899845ad3d59bd9653f200f220920489ca2b5937696c31836040516111b79190611b96565b60405180910390a3505050565b6111cf848484610df2565b6111db84848484611704565b61121a576040517f08c379a000000000000000000000000000000000000000000000000000000000815260040161121190612cef565b60405180910390fd5b50505050565b606060008203611267576040518060400160405280600181526020017f3000000000000000000000000000000000000000000000000000000000000000815250905061137b565b600082905060005b6000821461129957808061128290612d0f565b915050600a826112929190612d86565b915061126f565b60008167ffffffffffffffff8111156112b5576112b4611eae565b5b6040519080825280601f01601f1916602001820160405280156112e75781602001600182028036833780820191505090505b5090505b60008514611374576001826113009190612ba9565b9150600a8561130f9190612db7565b603061131b9190612bdd565b60f81b818381518110611331576113306124c9565b5b60200101907effffffffffffffffffffffffffffffffffffffffffffffffffffffffffffff1916908160001a905350600a8561136d9190612d86565b94506112eb565b8093505050505b919050565b6060600082519050600081036113a85760405180602001604052806000815250915050611512565b600060036002836113b99190612bdd565b6113c39190612d86565b60046113cf9190612de8565b905060006020826113e09190612bdd565b67ffffffffffffffff8111156113f9576113f8611eae565b5b6040519080825280601f01601f19166020018201604052801561142b5781602001600182028036833780820191505090505b50905060006040518060600160405280604081526020016130db604091399050600181016020830160005b868110156114cf5760038101905062ffffff818a015116603f8160121c168401518060081b905060ff603f83600c1c1686015116810190508060081b905060ff603f8360061c1686015116810190508060081b905060ff603f831686015116810190508060e01b90508084526004840193505050611456565b5060038606600181146114e957600281146114f957611504565b613d3d60f01b6002830352611504565b603d60f81b60018303525b508484525050819450505050505b919050565b600081600001549050919050565b61153f82826040518060200160405280600081525061188b565b5050565b61154c8261168e565b61158b576040517f08c379a000000000000000000000000000000000000000000000000000000000815260040161158290612e9c565b60405180910390fd5b806006600084815260200190815260200160002090816115ab9190612984565b505050565b61164a8383836040516024016115c893929190612ebc565b6040516020818303038152906040527f1c7ec448000000000000000000000000000000000000000000000000000000007bffffffffffffffffffffffffffffffffffffffffffffffffffffffff19166020820180517bffffffffffffffffffffffffffffffffffffffffffffffffffffffff8381831617835250505050611665565b505050565b6001816000016000828254019250508190555050565b60008151905060006a636f6e736f6c652e6c6f679050602083016000808483855afa5050505050565b60008073ffffffffffffffffffffffffffffffffffffffff166002600084815260200190815260200160002060009054906101000a900473ffffffffffffffffffffffffffffffffffffffff1673ffffffffffffffffffffffffffffffffffffffff1614159050919050565b505050565b505050565b60006117258473ffffffffffffffffffffffffffffffffffffffff166118e6565b1561187e578373ffffffffffffffffffffffffffffffffffffffff1663150b7a0261174e610c9c565b8786866040518563ffffffff1660e01b81526004016117709493929190612f4f565b6020604051808303816000875af19250505080156117ac57506040513d601f19601f820116820180604052508101906117a99190612fb0565b60015b61182e573d80600081146117dc576040519150601f19603f3d011682016040523d82523d6000602084013e6117e1565b606091505b506000815103611826576040517f08c379a000000000000000000000000000000000000000000000000000000000815260040161181d90612cef565b60405180910390fd5b805181602001fd5b63150b7a0260e01b7bffffffffffffffffffffffffffffffffffffffffffffffffffffffff1916817bffffffffffffffffffffffffffffffffffffffffffffffffffffffff191614915050611883565b600190505b949350505050565b6118958383611909565b6118a26000848484611704565b6118e1576040517f08c379a00000000000000000000000000000000000000000000000000000000081526004016118d890612cef565b60405180910390fd5b505050565b6000808273ffffffffffffffffffffffffffffffffffffffff163b119050919050565b600073ffffffffffffffffffffffffffffffffffffffff168273ffffffffffffffffffffffffffffffffffffffff1603611978576040517f08c379a000000000000000000000000000000000000000000000000000000000815260040161196f90613029565b60405180910390fd5b6119818161168e565b156119c1576040517f08c379a00000000000000000000000000000000000000000000000000000000081526004016119b890613095565b60405180910390fd5b6119cd600083836116fa565b6001600360008473ffffffffffffffffffffffffffffffffffffffff1673ffffffffffffffffffffffffffffffffffffffff1681526020019081526020016000206000828254611a1d9190612bdd565b92505081905550816002600083815260200190815260200160002060006101000a81548173ffffffffffffffffffffffffffffffffffffffff021916908373ffffffffffffffffffffffffffffffffffffffff160217905550808273ffffffffffffffffffffffffffffffffffffffff16600073ffffffffffffffffffffffffffffffffffffffff167fddf252ad1be2c89b69c2b068fc378daa952ba7f163c4a11628f55a4df523b3ef60405160405180910390a4611ade600083836116ff565b5050565b6000604051905090565b600080fd5b600080fd5b60007fffffffff0000000000000000000000000000000000000000000000000000000082169050919050565b611b2b81611af6565b8114611b3657600080fd5b50565b600081359050611b4881611b22565b92915050565b600060208284031215611b6457611b63611aec565b5b6000611b7284828501611b39565b91505092915050565b60008115159050919050565b611b9081611b7b565b82525050565b6000602082019050611bab6000830184611b87565b92915050565b600081519050919050565b600082825260208201905092915050565b60005b83811015611beb578082015181840152602081019050611bd0565b60008484015250505050565b6000601f19601f8301169050919050565b6000611c1382611bb1565b611c1d8185611bbc565b9350611c2d818560208601611bcd565b611c3681611bf7565b840191505092915050565b60006020820190508181036000830152611c5b8184611c08565b905092915050565b6000819050919050565b611c7681611c63565b8114611c8157600080fd5b50565b600081359050611c9381611c6d565b92915050565b600060208284031215611caf57611cae611aec565b5b6000611cbd84828501611c84565b91505092915050565b600073ffffffffffffffffffffffffffffffffffffffff82169050919050565b6000611cf182611cc6565b9050919050565b611d0181611ce6565b82525050565b6000602082019050611d1c6000830184611cf8565b92915050565b611d2b81611ce6565b8114611d3657600080fd5b50565b600081359050611d4881611d22565b92915050565b60008060408385031215611d6557611d64611aec565b5b6000611d7385828601611d39565b9250506020611d8485828601611c84565b9150509250929050565b600080600060608486031215611da757611da6611aec565b5b6000611db586828701611d39565b9350506020611dc686828701611d39565b9250506040611dd786828701611c84565b9150509250925092565b600060208284031215611df757611df6611aec565b5b6000611e0584828501611d39565b91505092915050565b611e1781611c63565b82525050565b6000602082019050611e326000830184611e0e565b92915050565b611e4181611b7b565b8114611e4c57600080fd5b50565b600081359050611e5e81611e38565b92915050565b60008060408385031215611e7b57611e7a611aec565b5b6000611e8985828601611d39565b9250506020611e9a85828601611e4f565b9150509250929050565b600080fd5b600080fd5b7f4e487b7100000000000000000000000000000000000000000000000000000000600052604160045260246000fd5b611ee682611bf7565b810181811067ffffffffffffffff82111715611f0557611f04611eae565b5b80604052505050565b6000611f18611ae2565b9050611f248282611edd565b919050565b600067ffffffffffffffff821115611f4457611f43611eae565b5b611f4d82611bf7565b9050602081019050919050565b82818337600083830152505050565b6000611f7c611f7784611f29565b611f0e565b905082815260208101848484011115611f9857611f97611ea9565b5b611fa3848285611f5a565b509392505050565b600082601f830112611fc057611fbf611ea4565b5b8135611fd0848260208601611f69565b91505092915050565b60008060008060808587031215611ff357611ff2611aec565b5b600061200187828801611d39565b945050602061201287828801611d39565b935050604061202387828801611c84565b925050606085013567ffffffffffffffff81111561204457612043611af1565b5b61205087828801611fab565b91505092959194509250565b6000806040838503121561207357612072611aec565b5b600061208185828601611d39565b925050602061209285828601611d39565b9150509250929050565b600067ffffffffffffffff8211156120b7576120b6611eae565b5b6120c082611bf7565b9050602081019050919050565b60006120e06120db8461209c565b611f0e565b9050828152602081018484840111156120fc576120fb611ea9565b5b612107848285611f5a565b509392505050565b600082601f83011261212457612123611ea4565b5b81356121348482602086016120cd565b91505092915050565b6000806040838503121561215457612153611aec565b5b600083013567ffffffffffffffff81111561217257612171611af1565b5b61217e8582860161210f565b925050602083013567ffffffffffffffff81111561219f5761219e611af1565b5b6121ab8582860161210f565b9150509250929050565b7f4e487b7100000000000000000000000000000000000000000000000000000000600052602260045260246000fd5b600060028204905060018216806121fc57607f821691505b60208210810361220f5761220e6121b5565b5b50919050565b7f4552433732313a20617070726f76616c20746f2063757272656e74206f776e6560008201527f7200000000000000000000000000000000000000000000000000000000000000602082015250565b6000612271602183611bbc565b915061227c82612215565b604082019050919050565b600060208201905081810360008301526122a081612264565b9050919050565b7f4552433732313a20617070726f76652063616c6c6572206973206e6f7420746f60008201527f6b656e206f776e6572206e6f7220617070726f76656420666f7220616c6c0000602082015250565b6000612303603e83611bbc565b915061230e826122a7565b604082019050919050565b60006020820190508181036000830152612332816122f6565b9050919050565b7f4552433732313a2063616c6c6572206973206e6f7420746f6b656e206f776e6560008201527f72206e6f7220617070726f766564000000000000000000000000000000000000602082015250565b6000612395602e83611bbc565b91506123a082612339565b604082019050919050565b600060208201905081810360008301526123c481612388565b9050919050565b7f4552433732313a20696e76616c696420746f6b656e2049440000000000000000600082015250565b6000612401601883611bbc565b915061240c826123cb565b602082019050919050565b60006020820190508181036000830152612430816123f4565b9050919050565b7f4552433732313a2061646472657373207a65726f206973206e6f74206120766160008201527f6c6964206f776e65720000000000000000000000000000000000000000000000602082015250565b6000612493602983611bbc565b915061249e82612437565b604082019050919050565b600060208201905081810360008301526124c281612486565b9050919050565b7f4e487b7100000000000000000000000000000000000000000000000000000000600052603260045260246000fd5b600081905092915050565b7f7b226e616d65223a202200000000000000000000000000000000000000000000600082015250565b6000612539600a836124f8565b915061254482612503565b600a82019050919050565b60008190508160005260206000209050919050565b60008154612571816121e4565b61257b81866124f8565b9450600182166000811461259657600181146125ab576125de565b60ff19831686528115158202860193506125de565b6125b48561254f565b60005b838110156125d6578154818901526001820191506020810190506125b7565b838801955050505b50505092915050565b7f202d2d204e465420233a20000000000000000000000000000000000000000000600082015250565b600061261d600b836124f8565b9150612628826125e7565b600b82019050919050565b600061263e82611bb1565b61264881856124f8565b9350612658818560208601611bcd565b80840191505092915050565b7f222c20226465736372697074696f6e223a2022416e2065706963204e4654222c60008201527f2022696d616765223a2022697066733a2f2f0000000000000000000000000000602082015250565b60006126c06032836124f8565b91506126cb82612664565b603282019050919050565b7f227d000000000000000000000000000000000000000000000000000000000000600082015250565b600061270c6002836124f8565b9150612717826126d6565b600282019050919050565b600061272d8261252c565b91506127398286612564565b915061274482612610565b91506127508285612633565b915061275b826126b3565b91506127678284612564565b9150612772826126ff565b9150819050949350505050565b7f646174613a6170706c69636174696f6e2f6a736f6e3b6261736536342c000000600082015250565b60006127b5601d836124f8565b91506127c08261277f565b601d82019050919050565b60006127d6826127a8565b91506127e28284612633565b915081905092915050565b60006020601f8301049050919050565b600082821b905092915050565b60006008830261283a7fffffffffffffffffffffffffffffffffffffffffffffffffffffffffffffffff826127fd565b61284486836127fd565b95508019841693508086168417925050509392505050565b6000819050919050565b600061288161287c61287784611c63565b61285c565b611c63565b9050919050565b6000819050919050565b61289b83612866565b6128af6128a782612888565b84845461280a565b825550505050565b600090565b6128c46128b7565b6128cf818484612892565b505050565b5b818110156128f3576128e86000826128bc565b6001810190506128d5565b5050565b601f821115612938576129098161254f565b612912846127ed565b81016020851015612921578190505b61293561292d856127ed565b8301826128d4565b50505b505050565b600082821c905092915050565b600061295b6000198460080261293d565b1980831691505092915050565b6000612974838361294a565b9150826002028217905092915050565b61298d82611bb1565b67ffffffffffffffff8111156129a6576129a5611eae565b5b6129b082546121e4565b6129bb8282856128f7565b600060209050601f8311600181146129ee57600084156129dc578287015190505b6129e68582612968565b865550612a4e565b601f1984166129fc8661254f565b60005b82811015612a24578489015182556001820191506020850194506020810190506129ff565b86831015612a415784890151612a3d601f89168261294a565b8355505b6001600288020188555050505b505050505050565b7f4552433732313a207472616e736665722066726f6d20696e636f72726563742060008201527f6f776e6572000000000000000000000000000000000000000000000000000000602082015250565b6000612ab2602583611bbc565b9150612abd82612a56565b604082019050919050565b60006020820190508181036000830152612ae181612aa5565b9050919050565b7f4552433732313a207472616e7366657220746f20746865207a65726f2061646460008201527f7265737300000000000000000000000000000000000000000000000000000000602082015250565b6000612b44602483611bbc565b9150612b4f82612ae8565b604082019050919050565b60006020820190508181036000830152612b7381612b37565b9050919050565b7f4e487b7100000000000000000000000000000000000000000000000000000000600052601160045260246000fd5b6000612bb482611c63565b9150612bbf83611c63565b9250828203905081811115612bd757612bd6612b7a565b5b92915050565b6000612be882611c63565b9150612bf383611c63565b9250828201905080821115612c0b57612c0a612b7a565b5b92915050565b7f4552433732313a20617070726f766520746f2063616c6c657200000000000000600082015250565b6000612c47601983611bbc565b9150612c5282612c11565b602082019050919050565b60006020820190508181036000830152612c7681612c3a565b9050919050565b7f4552433732313a207472616e7366657220746f206e6f6e20455243373231526560008201527f63656976657220696d706c656d656e7465720000000000000000000000000000602082015250565b6000612cd9603283611bbc565b9150612ce482612c7d565b604082019050919050565b60006020820190508181036000830152612d0881612ccc565b9050919050565b6000612d1a82611c63565b91507fffffffffffffffffffffffffffffffffffffffffffffffffffffffffffffffff8203612d4c57612d4b612b7a565b5b600182019050919050565b7f4e487b7100000000000000000000000000000000000000000000000000000000600052601260045260246000fd5b6000612d9182611c63565b9150612d9c83611c63565b925082612dac57612dab612d57565b5b828204905092915050565b6000612dc282611c63565b9150612dcd83611c63565b925082612ddd57612ddc612d57565b5b828206905092915050565b6000612df382611c63565b9150612dfe83611c63565b9250828202612e0c81611c63565b91508282048414831517612e2357612e22612b7a565b5b5092915050565b7f45524337323155524953746f726167653a2055524920736574206f66206e6f6e60008201527f6578697374656e7420746f6b656e000000000000000000000000000000000000602082015250565b6000612e86602e83611bbc565b9150612e9182612e2a565b604082019050919050565b60006020820190508181036000830152612eb581612e79565b9050919050565b60006060820190508181036000830152612ed68186611c08565b9050612ee56020830185611e0e565b612ef26040830184611cf8565b949350505050565b600081519050919050565b600082825260208201905092915050565b6000612f2182612efa565b612f2b8185612f05565b9350612f3b818560208601611bcd565b612f4481611bf7565b840191505092915050565b6000608082019050612f646000830187611cf8565b612f716020830186611cf8565b612f7e6040830185611e0e565b8181036060830152612f908184612f16565b905095945050505050565b600081519050612faa81611b22565b92915050565b600060208284031215612fc657612fc5611aec565b5b6000612fd484828501612f9b565b91505092915050565b7f4552433732313a206d696e7420746f20746865207a65726f2061646472657373600082015250565b6000613013602083611bbc565b915061301e82612fdd565b602082019050919050565b6000602082019050818103600083015261304281613006565b9050919050565b7f4552433732313a20746f6b656e20616c7265616479206d696e74656400000000600082015250565b600061307f601c83611bbc565b915061308a82613049565b602082019050919050565b600060208201905081810360008301526130ae81613072565b905091905056fe416e204e465420772f20494420257320686173206265656e206d696e74656420746f2025734142434445464748494a4b4c4d4e4f505152535455565758595a6162636465666768696a6b6c6d6e6f707172737475767778797a303132333435363738392b2fa26469706673582212206f9fd95dccca3cad9213d8b59ee4fd419c247f0359a28b49d93944b3be79a55064736f6c63430008110033",
  "linkReferences": {},
  "deployedLinkReferences": {}
}