{
  "_format": "hh-sol-artifact-1",
  "contractName": "Web3Mint",
  "sourceName": "contracts/Web3Mint.sol",
  "abi": [
    {
      "inputs": [],
      "stateMutability": "nonpayable",
      "type": "constructor"
    },
    {
      "anonymous": false,
      "inputs": [
        {
          "indexed": true,
          "internalType": "address",
          "name": "owner",
          "type": "address"
        },
        {
          "indexed": true,
          "internalType": "address",
          "name": "approved",
          "type": "address"
        },
        {
          "indexed": true,
          "internalType": "uint256",
          "name": "tokenId",
          "type": "uint256"
        }
      ],
      "name": "Approval",
      "type": "event"
    },
    {
      "anonymous": false,
      "inputs": [
        {
          "indexed": true,
          "internalType": "address",
          "name": "owner",
          "type": "address"
        },
        {
          "indexed": true,
          "internalType": "address",
          "name": "operator",
          "type": "address"
        },
        {
          "indexed": false,
          "internalType": "bool",
          "name": "approved",
          "type": "bool"
        }
      ],
      "name": "ApprovalForAll",
      "type": "event"
    },
    {
      "anonymous": false,
      "inputs": [
        {
          "indexed": false,
          "internalType": "address",
          "name": "sender",
          "type": "address"
        },
        {
          "indexed": false,
          "internalType": "uint256",
          "name": "tokenId",
          "type": "uint256"
        }
      ],
      "name": "NewEpicNFTMinted",
      "type": "event"
    },
    {
      "anonymous": false,
      "inputs": [
        {
          "indexed": true,
          "internalType": "address",
          "name": "from",
          "type": "address"
        },
        {
          "indexed": true,
          "internalType": "address",
          "name": "to",
          "type": "address"
        },
        {
          "indexed": true,
          "internalType": "uint256",
          "name": "tokenId",
          "type": "uint256"
        }
      ],
      "name": "Transfer",
      "type": "event"
    },
    {
      "inputs": [
        {
          "internalType": "address",
          "name": "to",
          "type": "address"
        },
        {
          "internalType": "uint256",
          "name": "tokenId",
          "type": "uint256"
        }
      ],
      "name": "approve",
      "outputs": [],
      "stateMutability": "nonpayable",
      "type": "function"
    },
    {
      "inputs": [
        {
          "internalType": "address",
          "name": "owner",
          "type": "address"
        }
      ],
      "name": "balanceOf",
      "outputs": [
        {
          "internalType": "uint256",
          "name": "",
          "type": "uint256"
        }
      ],
      "stateMutability": "view",
      "type": "function"
    },
    {
      "inputs": [
        {
          "internalType": "uint256",
          "name": "tokenId",
          "type": "uint256"
        }
      ],
      "name": "getApproved",
      "outputs": [
        {
          "internalType": "address",
          "name": "",
          "type": "address"
        }
      ],
      "stateMutability": "view",
      "type": "function"
    },
    {
      "inputs": [
        {
          "internalType": "address",
          "name": "owner",
          "type": "address"
        },
        {
          "internalType": "address",
          "name": "operator",
          "type": "address"
        }
      ],
      "name": "isApprovedForAll",
      "outputs": [
        {
          "internalType": "bool",
          "name": "",
          "type": "bool"
        }
      ],
      "stateMutability": "view",
      "type": "function"
    },
    {
      "inputs": [
        {
          "internalType": "string",
          "name": "name",
          "type": "string"
        },
        {
          "internalType": "string",
          "name": "imageURI",
          "type": "string"
        }
      ],
      "name": "mintIpfsNFT",
      "outputs": [],
      "stateMutability": "nonpayable",
      "type": "function"
    },
    {
      "inputs": [],
      "name": "name",
      "outputs": [
        {
          "internalType": "string",
          "name": "",
          "type": "string"
        }
      ],
      "stateMutability": "view",
      "type": "function"
    },
    {
      "inputs": [
        {
          "internalType": "uint256",
          "name": "tokenId",
          "type": "uint256"
        }
      ],
      "name": "ownerOf",
      "outputs": [
        {
          "internalType": "address",
          "name": "",
          "type": "address"
        }
      ],
      "stateMutability": "view",
      "type": "function"
    },
    {
      "inputs": [
        {
          "internalType": "address",
          "name": "from",
          "type": "address"
        },
        {
          "internalType": "address",
          "name": "to",
          "type": "address"
        },
        {
          "internalType": "uint256",
          "name": "tokenId",
          "type": "uint256"
        }
      ],
      "name": "safeTransferFrom",
      "outputs": [],
      "stateMutability": "nonpayable",
      "type": "function"
    },
    {
      "inputs": [
        {
          "internalType": "address",
          "name": "from",
          "type": "address"
        },
        {
          "internalType": "address",
          "name": "to",
          "type": "address"
        },
        {
          "internalType": "uint256",
          "name": "tokenId",
          "type": "uint256"
        },
        {
          "internalType": "bytes",
          "name": "data",
          "type": "bytes"
        }
      ],
      "name": "safeTransferFrom",
      "outputs": [],
      "stateMutability": "nonpayable",
      "type": "function"
    },
    {
      "inputs": [
        {
          "internalType": "address",
          "name": "operator",
          "type": "address"
        },
        {
          "internalType": "bool",
          "name": "approved",
          "type": "bool"
        }
      ],
      "name": "setApprovalForAll",
      "outputs": [],
      "stateMutability": "nonpayable",
      "type": "function"
    },
    {
      "inputs": [
        {
          "internalType": "bytes4",
          "name": "interfaceId",
          "type": "bytes4"
        }
      ],
      "name": "supportsInterface",
      "outputs": [
        {
          "internalType": "bool",
          "name": "",
          "type": "bool"
        }
      ],
      "stateMutability": "view",
      "type": "function"
    },
    {
      "inputs": [],
      "name": "symbol",
      "outputs": [
        {
          "internalType": "string",
          "name": "",
          "type": "string"
        }
      ],
      "stateMutability": "view",
      "type": "function"
    },
    {
      "inputs": [
        {
          "internalType": "uint256",
          "name": "_tokenId",
          "type": "uint256"
        }
      ],
      "name": "tokenURI",
      "outputs": [
        {
          "internalType": "string",
          "name": "",
          "type": "string"
        }
      ],
      "stateMutability": "view",
      "type": "function"
    },
    {
      "inputs": [
        {
          "internalType": "address",
          "name": "from",
          "type": "address"
        },
        {
          "internalType": "address",
          "name": "to",
          "type": "address"
        },
        {
          "internalType": "uint256",
          "name": "tokenId",
          "type": "uint256"
        }
      ],
      "name": "transferFrom",
      "outputs": [],
      "stateMutability": "nonpayable",
      "type": "function"
    }
  ],
  "bytecode": "0x60806040523480156200001157600080fd5b506040518060400160405280600381526020017f4e465400000000000000000000000000000000000000000000000000000000008152506040518060400160405280600381526020017f6e6674000000000000000000000000000000000000000000000000000000000081525081600090816200008f91906200043b565b508060019081620000a191906200043b565b505050620000ef6040518060400160405280601881526020017f54686973206973206d79204e465420636f6e74726163742e0000000000000000815250620000f560201b62000aeb1760201c565b620005d5565b62000195816040516024016200010c9190620005b1565b6040516020818303038152906040527f41304fac000000000000000000000000000000000000000000000000000000007bffffffffffffffffffffffffffffffffffffffffffffffffffffffff19166020820180517bffffffffffffffffffffffffffffffffffffffffffffffffffffffff83818316178352505050506200019860201b60201c565b50565b60008151905060006a636f6e736f6c652e6c6f679050602083016000808483855afa5050505050565b600081519050919050565b7f4e487b7100000000000000000000000000000000000000000000000000000000600052604160045260246000fd5b7f4e487b7100000000000000000000000000000000000000000000000000000000600052602260045260246000fd5b600060028204905060018216806200024357607f821691505b602082108103620002595762000258620001fb565b5b50919050565b60008190508160005260206000209050919050565b60006020601f8301049050919050565b600082821b905092915050565b600060088302620002c37fffffffffffffffffffffffffffffffffffffffffffffffffffffffffffffffff8262000284565b620002cf868362000284565b95508019841693508086168417925050509392505050565b6000819050919050565b6000819050919050565b60006200031c620003166200031084620002e7565b620002f1565b620002e7565b9050919050565b6000819050919050565b6200033883620002fb565b62000350620003478262000323565b84845462000291565b825550505050565b600090565b6200036762000358565b620003748184846200032d565b505050565b5b818110156200039c57620003906000826200035d565b6001810190506200037a565b5050565b601f821115620003eb57620003b5816200025f565b620003c08462000274565b81016020851015620003d0578190505b620003e8620003df8562000274565b83018262000379565b50505b505050565b600082821c905092915050565b60006200041060001984600802620003f0565b1980831691505092915050565b60006200042b8383620003fd565b9150826002028217905092915050565b6200044682620001c1565b67ffffffffffffffff811115620004625762000461620001cc565b5b6200046e82546200022a565b6200047b828285620003a0565b600060209050601f831160018114620004b357600084156200049e578287015190505b620004aa85826200041d565b8655506200051a565b601f198416620004c3866200025f565b60005b82811015620004ed57848901518255600182019150602085019450602081019050620004c6565b868310156200050d578489015162000509601f891682620003fd565b8355505b6001600288020188555050505b505050505050565b600082825260208201905092915050565b60005b838110156200055357808201518184015260208101905062000536565b60008484015250505050565b6000601f19601f8301169050919050565b60006200057d82620001c1565b62000589818562000522565b93506200059b81856020860162000533565b620005a6816200055f565b840191505092915050565b60006020820190508181036000830152620005cd818462000570565b905092915050565b61301780620005e56000396000f3fe608060405234801561001057600080fd5b50600436106100ea5760003560e01c806370a082311161008c578063b88d4fde11610066578063b88d4fde1461025b578063c87b56dd14610277578063e985e9c5146102a7578063eb00195d146102d7576100ea565b806370a08231146101f157806395d89b4114610221578063a22cb4651461023f576100ea565b8063095ea7b3116100c8578063095ea7b31461016d57806323b872dd1461018957806342842e0e146101a55780636352211e146101c1576100ea565b806301ffc9a7146100ef57806306fdde031461011f578063081812fc1461013d575b600080fd5b61010960048036038101906101049190611a7e565b6102f3565b6040516101169190611ac6565b60405180910390f35b6101276103d5565b6040516101349190611b71565b60405180910390f35b61015760048036038101906101529190611bc9565b610467565b6040516101649190611c37565b60405180910390f35b61018760048036038101906101829190611c7e565b6104ad565b005b6101a3600480360381019061019e9190611cbe565b6105c4565b005b6101bf60048036038101906101ba9190611cbe565b610624565b005b6101db60048036038101906101d69190611bc9565b610644565b6040516101e89190611c37565b60405180910390f35b61020b60048036038101906102069190611d11565b6106f5565b6040516102189190611d4d565b60405180910390f35b6102296107ac565b6040516102369190611b71565b60405180910390f35b61025960048036038101906102549190611d94565b61083e565b005b61027560048036038101906102709190611f09565b610854565b005b610291600480360381019061028c9190611bc9565b6108b6565b60405161029e9190611b71565b60405180910390f35b6102c160048036038101906102bc9190611f8c565b610966565b6040516102ce9190611ac6565b60405180910390f35b6102f160048036038101906102ec919061206d565b6109fa565b005b60007f80ac58cd000000000000000000000000000000000000000000000000000000007bffffffffffffffffffffffffffffffffffffffffffffffffffffffff1916827bffffffffffffffffffffffffffffffffffffffffffffffffffffffff191614806103be57507f5b5e139f000000000000000000000000000000000000000000000000000000007bffffffffffffffffffffffffffffffffffffffffffffffffffffffff1916827bffffffffffffffffffffffffffffffffffffffffffffffffffffffff1916145b806103ce57506103cd82610b84565b5b9050919050565b6060600080546103e490612114565b80601f016020809104026020016040519081016040528092919081815260200182805461041090612114565b801561045d5780601f106104325761010080835404028352916020019161045d565b820191906000526020600020905b81548152906001019060200180831161044057829003601f168201915b5050505050905090565b600061047282610bee565b6004600083815260200190815260200160002060009054906101000a900473ffffffffffffffffffffffffffffffffffffffff169050919050565b60006104b882610644565b90508073ffffffffffffffffffffffffffffffffffffffff168373ffffffffffffffffffffffffffffffffffffffff1603610528576040517f08c379a000000000000000000000000000000000000000000000000000000000815260040161051f906121b7565b60405180910390fd5b8073ffffffffffffffffffffffffffffffffffffffff16610547610c39565b73ffffffffffffffffffffffffffffffffffffffff161480610576575061057581610570610c39565b610966565b5b6105b5576040517f08c379a00000000000000000000000000000000000000000000000000000000081526004016105ac90612249565b60405180910390fd5b6105bf8383610c41565b505050565b6105d56105cf610c39565b82610cfa565b610614576040517f08c379a000000000000000000000000000000000000000000000000000000000815260040161060b906122db565b60405180910390fd5b61061f838383610d8f565b505050565b61063f83838360405180602001604052806000815250610854565b505050565b6000806002600084815260200190815260200160002060009054906101000a900473ffffffffffffffffffffffffffffffffffffffff169050600073ffffffffffffffffffffffffffffffffffffffff168173ffffffffffffffffffffffffffffffffffffffff16036106ec576040517f08c379a00000000000000000000000000000000000000000000000000000000081526004016106e390612347565b60405180910390fd5b80915050919050565b60008073ffffffffffffffffffffffffffffffffffffffff168273ffffffffffffffffffffffffffffffffffffffff1603610765576040517f08c379a000000000000000000000000000000000000000000000000000000000815260040161075c906123d9565b60405180910390fd5b600360008373ffffffffffffffffffffffffffffffffffffffff1673ffffffffffffffffffffffffffffffffffffffff168152602001908152602001600020549050919050565b6060600180546107bb90612114565b80601f01602080910402602001604051908101604052809291908181526020018280546107e790612114565b80156108345780601f1061080957610100808354040283529160200191610834565b820191906000526020600020905b81548152906001019060200180831161081757829003601f168201915b5050505050905090565b610850610849610c39565b8383610ff5565b5050565b61086561085f610c39565b83610cfa565b6108a4576040517f08c379a000000000000000000000000000000000000000000000000000000000815260040161089b906122db565b60405180910390fd5b6108b084848484611161565b50505050565b60606000610936600784815481106108d1576108d06123f9565b5b90600052602060002090600202016000016108eb856111bd565b600786815481106108ff576108fe6123f9565b5b906000526020600020906002020160010160405160200161092293929190612652565b60405160208183030381529060405261131d565b905060008160405160200161094b91906126fb565b60405160208183030381529060405290508092505050919050565b6000600560008473ffffffffffffffffffffffffffffffffffffffff1673ffffffffffffffffffffffffffffffffffffffff16815260200190815260200160002060008373ffffffffffffffffffffffffffffffffffffffff1673ffffffffffffffffffffffffffffffffffffffff16815260200190815260200160002060009054906101000a900460ff16905092915050565b6000610a0660066114b4565b9050610a1233826114c2565b600760405180604001604052808581526020018481525090806001815401808255809150506001900390600052602060002090600202016000909190919091506000820151816000019081610a6791906128b4565b506020820151816001019081610a7d91906128b4565b505050610aa3604051806060016040528060258152602001612f7d6025913982336114e0565b610aad600661157f565b7febb98688741ffa4c7589bf325de30cf7becb63de567842e1ccdb6cb949fdc82c3382604051610ade929190612986565b60405180910390a1505050565b610b8181604051602401610aff9190611b71565b6040516020818303038152906040527f41304fac000000000000000000000000000000000000000000000000000000007bffffffffffffffffffffffffffffffffffffffffffffffffffffffff19166020820180517bffffffffffffffffffffffffffffffffffffffffffffffffffffffff8381831617835250505050611595565b50565b60007f01ffc9a7000000000000000000000000000000000000000000000000000000007bffffffffffffffffffffffffffffffffffffffffffffffffffffffff1916827bffffffffffffffffffffffffffffffffffffffffffffffffffffffff1916149050919050565b610bf7816115be565b610c36576040517f08c379a0000000000000000000000000000000000000000000000000000000008152600401610c2d90612347565b60405180910390fd5b50565b600033905090565b816004600083815260200190815260200160002060006101000a81548173ffffffffffffffffffffffffffffffffffffffff021916908373ffffffffffffffffffffffffffffffffffffffff160217905550808273ffffffffffffffffffffffffffffffffffffffff16610cb483610644565b73ffffffffffffffffffffffffffffffffffffffff167f8c5be1e5ebec7d5bd14f71427d1e84f3dd0314c0f7b2291e5b200ac8c7c3b92560405160405180910390a45050565b600080610d0683610644565b90508073ffffffffffffffffffffffffffffffffffffffff168473ffffffffffffffffffffffffffffffffffffffff161480610d485750610d478185610966565b5b80610d8657508373ffffffffffffffffffffffffffffffffffffffff16610d6e84610467565b73ffffffffffffffffffffffffffffffffffffffff16145b91505092915050565b8273ffffffffffffffffffffffffffffffffffffffff16610daf82610644565b73ffffffffffffffffffffffffffffffffffffffff1614610e05576040517f08c379a0000000000000000000000000000000000000000000000000000000008152600401610dfc90612a21565b60405180910390fd5b600073ffffffffffffffffffffffffffffffffffffffff168273ffffffffffffffffffffffffffffffffffffffff1603610e74576040517f08c379a0000000000000000000000000000000000000000000000000000000008152600401610e6b90612ab3565b60405180910390fd5b610e7f83838361162a565b610e8a600082610c41565b6001600360008573ffffffffffffffffffffffffffffffffffffffff1673ffffffffffffffffffffffffffffffffffffffff1681526020019081526020016000206000828254610eda9190612b02565b925050819055506001600360008473ffffffffffffffffffffffffffffffffffffffff1673ffffffffffffffffffffffffffffffffffffffff1681526020019081526020016000206000828254610f319190612b36565b92505081905550816002600083815260200190815260200160002060006101000a81548173ffffffffffffffffffffffffffffffffffffffff021916908373ffffffffffffffffffffffffffffffffffffffff160217905550808273ffffffffffffffffffffffffffffffffffffffff168473ffffffffffffffffffffffffffffffffffffffff167fddf252ad1be2c89b69c2b068fc378daa952ba7f163c4a11628f55a4df523b3ef60405160405180910390a4610ff083838361162f565b505050565b8173ffffffffffffffffffffffffffffffffffffffff168373ffffffffffffffffffffffffffffffffffffffff1603611063576040517f08c379a000000000000000000000000000000000000000000000000000000000815260040161105a90612bb6565b60405180910390fd5b80600560008573ffffffffffffffffffffffffffffffffffffffff1673ffffffffffffffffffffffffffffffffffffffff16815260200190815260200160002060008473ffffffffffffffffffffffffffffffffffffffff1673ffffffffffffffffffffffffffffffffffffffff16815260200190815260200160002060006101000a81548160ff0219169083151502179055508173ffffffffffffffffffffffffffffffffffffffff168373ffffffffffffffffffffffffffffffffffffffff167f17307eab39ab6107e8899845ad3d59bd9653f200f220920489ca2b5937696c31836040516111549190611ac6565b60405180910390a3505050565b61116c848484610d8f565b61117884848484611634565b6111b7576040517f08c379a00000000000000000000000000000000000000000000000000000000081526004016111ae90612c48565b60405180910390fd5b50505050565b606060008203611204576040518060400160405280600181526020017f30000000000000000000000000000000000000000000000000000000000000008152509050611318565b600082905060005b6000821461123657808061121f90612c68565b915050600a8261122f9190612cdf565b915061120c565b60008167ffffffffffffffff81111561125257611251611dde565b5b6040519080825280601f01601f1916602001820160405280156112845781602001600182028036833780820191505090505b5090505b600085146113115760018261129d9190612b02565b9150600a856112ac9190612d10565b60306112b89190612b36565b60f81b8183815181106112ce576112cd6123f9565b5b60200101907effffffffffffffffffffffffffffffffffffffffffffffffffffffffffffff1916908160001a905350600a8561130a9190612cdf565b9450611288565b8093505050505b919050565b60606000825190506000810361134557604051806020016040528060008152509150506114af565b600060036002836113569190612b36565b6113609190612cdf565b600461136c9190612d41565b9050600060208261137d9190612b36565b67ffffffffffffffff81111561139657611395611dde565b5b6040519080825280601f01601f1916602001820160405280156113c85781602001600182028036833780820191505090505b5090506000604051806060016040528060408152602001612fa2604091399050600181016020830160005b8681101561146c5760038101905062ffffff818a015116603f8160121c168401518060081b905060ff603f83600c1c1686015116810190508060081b905060ff603f8360061c1686015116810190508060081b905060ff603f831686015116810190508060e01b905080845260048401935050506113f3565b5060038606600181146114865760028114611496576114a1565b613d3d60f01b60028303526114a1565b603d60f81b60018303525b508484525050819450505050505b919050565b600081600001549050919050565b6114dc8282604051806020016040528060008152506117bb565b5050565b61157a8383836040516024016114f893929190612d83565b6040516020818303038152906040527f1c7ec448000000000000000000000000000000000000000000000000000000007bffffffffffffffffffffffffffffffffffffffffffffffffffffffff19166020820180517bffffffffffffffffffffffffffffffffffffffffffffffffffffffff8381831617835250505050611595565b505050565b6001816000016000828254019250508190555050565b60008151905060006a636f6e736f6c652e6c6f679050602083016000808483855afa5050505050565b60008073ffffffffffffffffffffffffffffffffffffffff166002600084815260200190815260200160002060009054906101000a900473ffffffffffffffffffffffffffffffffffffffff1673ffffffffffffffffffffffffffffffffffffffff1614159050919050565b505050565b505050565b60006116558473ffffffffffffffffffffffffffffffffffffffff16611816565b156117ae578373ffffffffffffffffffffffffffffffffffffffff1663150b7a0261167e610c39565b8786866040518563ffffffff1660e01b81526004016116a09493929190612e16565b6020604051808303816000875af19250505080156116dc57506040513d601f19601f820116820180604052508101906116d99190612e77565b60015b61175e573d806000811461170c576040519150601f19603f3d011682016040523d82523d6000602084013e611711565b606091505b506000815103611756576040517f08c379a000000000000000000000000000000000000000000000000000000000815260040161174d90612c48565b60405180910390fd5b805181602001fd5b63150b7a0260e01b7bffffffffffffffffffffffffffffffffffffffffffffffffffffffff1916817bffffffffffffffffffffffffffffffffffffffffffffffffffffffff1916149150506117b3565b600190505b949350505050565b6117c58383611839565b6117d26000848484611634565b611811576040517f08c379a000000000000000000000000000000000000000000000000000000000815260040161180890612c48565b60405180910390fd5b505050565b6000808273ffffffffffffffffffffffffffffffffffffffff163b119050919050565b600073ffffffffffffffffffffffffffffffffffffffff168273ffffffffffffffffffffffffffffffffffffffff16036118a8576040517f08c379a000000000000000000000000000000000000000000000000000000000815260040161189f90612ef0565b60405180910390fd5b6118b1816115be565b156118f1576040517f08c379a00000000000000000000000000000000000000000000000000000000081526004016118e890612f5c565b60405180910390fd5b6118fd6000838361162a565b6001600360008473ffffffffffffffffffffffffffffffffffffffff1673ffffffffffffffffffffffffffffffffffffffff168152602001908152602001600020600082825461194d9190612b36565b92505081905550816002600083815260200190815260200160002060006101000a81548173ffffffffffffffffffffffffffffffffffffffff021916908373ffffffffffffffffffffffffffffffffffffffff160217905550808273ffffffffffffffffffffffffffffffffffffffff16600073ffffffffffffffffffffffffffffffffffffffff167fddf252ad1be2c89b69c2b068fc378daa952ba7f163c4a11628f55a4df523b3ef60405160405180910390a4611a0e6000838361162f565b5050565b6000604051905090565b600080fd5b600080fd5b60007fffffffff0000000000000000000000000000000000000000000000000000000082169050919050565b611a5b81611a26565b8114611a6657600080fd5b50565b600081359050611a7881611a52565b92915050565b600060208284031215611a9457611a93611a1c565b5b6000611aa284828501611a69565b91505092915050565b60008115159050919050565b611ac081611aab565b82525050565b6000602082019050611adb6000830184611ab7565b92915050565b600081519050919050565b600082825260208201905092915050565b60005b83811015611b1b578082015181840152602081019050611b00565b60008484015250505050565b6000601f19601f8301169050919050565b6000611b4382611ae1565b611b4d8185611aec565b9350611b5d818560208601611afd565b611b6681611b27565b840191505092915050565b60006020820190508181036000830152611b8b8184611b38565b905092915050565b6000819050919050565b611ba681611b93565b8114611bb157600080fd5b50565b600081359050611bc381611b9d565b92915050565b600060208284031215611bdf57611bde611a1c565b5b6000611bed84828501611bb4565b91505092915050565b600073ffffffffffffffffffffffffffffffffffffffff82169050919050565b6000611c2182611bf6565b9050919050565b611c3181611c16565b82525050565b6000602082019050611c4c6000830184611c28565b92915050565b611c5b81611c16565b8114611c6657600080fd5b50565b600081359050611c7881611c52565b92915050565b60008060408385031215611c9557611c94611a1c565b5b6000611ca385828601611c69565b9250506020611cb485828601611bb4565b9150509250929050565b600080600060608486031215611cd757611cd6611a1c565b5b6000611ce586828701611c69565b9350506020611cf686828701611c69565b9250506040611d0786828701611bb4565b9150509250925092565b600060208284031215611d2757611d26611a1c565b5b6000611d3584828501611c69565b91505092915050565b611d4781611b93565b82525050565b6000602082019050611d626000830184611d3e565b92915050565b611d7181611aab565b8114611d7c57600080fd5b50565b600081359050611d8e81611d68565b92915050565b60008060408385031215611dab57611daa611a1c565b5b6000611db985828601611c69565b9250506020611dca85828601611d7f565b9150509250929050565b600080fd5b600080fd5b7f4e487b7100000000000000000000000000000000000000000000000000000000600052604160045260246000fd5b611e1682611b27565b810181811067ffffffffffffffff82111715611e3557611e34611dde565b5b80604052505050565b6000611e48611a12565b9050611e548282611e0d565b919050565b600067ffffffffffffffff821115611e7457611e73611dde565b5b611e7d82611b27565b9050602081019050919050565b82818337600083830152505050565b6000611eac611ea784611e59565b611e3e565b905082815260208101848484011115611ec857611ec7611dd9565b5b611ed3848285611e8a565b509392505050565b600082601f830112611ef057611eef611dd4565b5b8135611f00848260208601611e99565b91505092915050565b60008060008060808587031215611f2357611f22611a1c565b5b6000611f3187828801611c69565b9450506020611f4287828801611c69565b9350506040611f5387828801611bb4565b925050606085013567ffffffffffffffff811115611f7457611f73611a21565b5b611f8087828801611edb565b91505092959194509250565b60008060408385031215611fa357611fa2611a1c565b5b6000611fb185828601611c69565b9250506020611fc285828601611c69565b9150509250929050565b600067ffffffffffffffff821115611fe757611fe6611dde565b5b611ff082611b27565b9050602081019050919050565b600061201061200b84611fcc565b611e3e565b90508281526020810184848401111561202c5761202b611dd9565b5b612037848285611e8a565b509392505050565b600082601f83011261205457612053611dd4565b5b8135612064848260208601611ffd565b91505092915050565b6000806040838503121561208457612083611a1c565b5b600083013567ffffffffffffffff8111156120a2576120a1611a21565b5b6120ae8582860161203f565b925050602083013567ffffffffffffffff8111156120cf576120ce611a21565b5b6120db8582860161203f565b9150509250929050565b7f4e487b7100000000000000000000000000000000000000000000000000000000600052602260045260246000fd5b6000600282049050600182168061212c57607f821691505b60208210810361213f5761213e6120e5565b5b50919050565b7f4552433732313a20617070726f76616c20746f2063757272656e74206f776e6560008201527f7200000000000000000000000000000000000000000000000000000000000000602082015250565b60006121a1602183611aec565b91506121ac82612145565b604082019050919050565b600060208201905081810360008301526121d081612194565b9050919050565b7f4552433732313a20617070726f76652063616c6c6572206973206e6f7420746f60008201527f6b656e206f776e6572206e6f7220617070726f76656420666f7220616c6c0000602082015250565b6000612233603e83611aec565b915061223e826121d7565b604082019050919050565b6000602082019050818103600083015261226281612226565b9050919050565b7f4552433732313a2063616c6c6572206973206e6f7420746f6b656e206f776e6560008201527f72206e6f7220617070726f766564000000000000000000000000000000000000602082015250565b60006122c5602e83611aec565b91506122d082612269565b604082019050919050565b600060208201905081810360008301526122f4816122b8565b9050919050565b7f4552433732313a20696e76616c696420746f6b656e2049440000000000000000600082015250565b6000612331601883611aec565b915061233c826122fb565b602082019050919050565b6000602082019050818103600083015261236081612324565b9050919050565b7f4552433732313a2061646472657373207a65726f206973206e6f74206120766160008201527f6c6964206f776e65720000000000000000000000000000000000000000000000602082015250565b60006123c3602983611aec565b91506123ce82612367565b604082019050919050565b600060208201905081810360008301526123f2816123b6565b9050919050565b7f4e487b7100000000000000000000000000000000000000000000000000000000600052603260045260246000fd5b600081905092915050565b7f7b226e616d65223a202200000000000000000000000000000000000000000000600082015250565b6000612469600a83612428565b915061247482612433565b600a82019050919050565b60008190508160005260206000209050919050565b600081546124a181612114565b6124ab8186612428565b945060018216600081146124c657600181146124db5761250e565b60ff198316865281151582028601935061250e565b6124e48561247f565b60005b83811015612506578154818901526001820191506020810190506124e7565b838801955050505b50505092915050565b7f202d2d204e465420233a20000000000000000000000000000000000000000000600082015250565b600061254d600b83612428565b915061255882612517565b600b82019050919050565b600061256e82611ae1565b6125788185612428565b9350612588818560208601611afd565b80840191505092915050565b7f222c20226465736372697074696f6e223a2022416e2065706963204e4654222c60008201527f2022696d616765223a2022697066733a2f2f0000000000000000000000000000602082015250565b60006125f0603283612428565b91506125fb82612594565b603282019050919050565b7f227d000000000000000000000000000000000000000000000000000000000000600082015250565b600061263c600283612428565b915061264782612606565b600282019050919050565b600061265d8261245c565b91506126698286612494565b915061267482612540565b91506126808285612563565b915061268b826125e3565b91506126978284612494565b91506126a28261262f565b9150819050949350505050565b7f646174613a6170706c69636174696f6e2f6a736f6e3b6261736536342c000000600082015250565b60006126e5601d83612428565b91506126f0826126af565b601d82019050919050565b6000612706826126d8565b91506127128284612563565b915081905092915050565b60006020601f8301049050919050565b600082821b905092915050565b60006008830261276a7fffffffffffffffffffffffffffffffffffffffffffffffffffffffffffffffff8261272d565b612774868361272d565b95508019841693508086168417925050509392505050565b6000819050919050565b60006127b16127ac6127a784611b93565b61278c565b611b93565b9050919050565b6000819050919050565b6127cb83612796565b6127df6127d7826127b8565b84845461273a565b825550505050565b600090565b6127f46127e7565b6127ff8184846127c2565b505050565b5b81811015612823576128186000826127ec565b600181019050612805565b5050565b601f821115612868576128398161247f565b6128428461271d565b81016020851015612851578190505b61286561285d8561271d565b830182612804565b50505b505050565b600082821c905092915050565b600061288b6000198460080261286d565b1980831691505092915050565b60006128a4838361287a565b9150826002028217905092915050565b6128bd82611ae1565b67ffffffffffffffff8111156128d6576128d5611dde565b5b6128e08254612114565b6128eb828285612827565b600060209050601f83116001811461291e576000841561290c578287015190505b6129168582612898565b86555061297e565b601f19841661292c8661247f565b60005b828110156129545784890151825560018201915060208501945060208101905061292f565b86831015612971578489015161296d601f89168261287a565b8355505b6001600288020188555050505b505050505050565b600060408201905061299b6000830185611c28565b6129a86020830184611d3e565b9392505050565b7f4552433732313a207472616e736665722066726f6d20696e636f72726563742060008201527f6f776e6572000000000000000000000000000000000000000000000000000000602082015250565b6000612a0b602583611aec565b9150612a16826129af565b604082019050919050565b60006020820190508181036000830152612a3a816129fe565b9050919050565b7f4552433732313a207472616e7366657220746f20746865207a65726f2061646460008201527f7265737300000000000000000000000000000000000000000000000000000000602082015250565b6000612a9d602483611aec565b9150612aa882612a41565b604082019050919050565b60006020820190508181036000830152612acc81612a90565b9050919050565b7f4e487b7100000000000000000000000000000000000000000000000000000000600052601160045260246000fd5b6000612b0d82611b93565b9150612b1883611b93565b9250828203905081811115612b3057612b2f612ad3565b5b92915050565b6000612b4182611b93565b9150612b4c83611b93565b9250828201905080821115612b6457612b63612ad3565b5b92915050565b7f4552433732313a20617070726f766520746f2063616c6c657200000000000000600082015250565b6000612ba0601983611aec565b9150612bab82612b6a565b602082019050919050565b60006020820190508181036000830152612bcf81612b93565b9050919050565b7f4552433732313a207472616e7366657220746f206e6f6e20455243373231526560008201527f63656976657220696d706c656d656e7465720000000000000000000000000000602082015250565b6000612c32603283611aec565b9150612c3d82612bd6565b604082019050919050565b60006020820190508181036000830152612c6181612c25565b9050919050565b6000612c7382611b93565b91507fffffffffffffffffffffffffffffffffffffffffffffffffffffffffffffffff8203612ca557612ca4612ad3565b5b600182019050919050565b7f4e487b7100000000000000000000000000000000000000000000000000000000600052601260045260246000fd5b6000612cea82611b93565b9150612cf583611b93565b925082612d0557612d04612cb0565b5b828204905092915050565b6000612d1b82611b93565b9150612d2683611b93565b925082612d3657612d35612cb0565b5b828206905092915050565b6000612d4c82611b93565b9150612d5783611b93565b9250828202612d6581611b93565b91508282048414831517612d7c57612d7b612ad3565b5b5092915050565b60006060820190508181036000830152612d9d8186611b38565b9050612dac6020830185611d3e565b612db96040830184611c28565b949350505050565b600081519050919050565b600082825260208201905092915050565b6000612de882612dc1565b612df28185612dcc565b9350612e02818560208601611afd565b612e0b81611b27565b840191505092915050565b6000608082019050612e2b6000830187611c28565b612e386020830186611c28565b612e456040830185611d3e565b8181036060830152612e578184612ddd565b905095945050505050565b600081519050612e7181611a52565b92915050565b600060208284031215612e8d57612e8c611a1c565b5b6000612e9b84828501612e62565b91505092915050565b7f4552433732313a206d696e7420746f20746865207a65726f2061646472657373600082015250565b6000612eda602083611aec565b9150612ee582612ea4565b602082019050919050565b60006020820190508181036000830152612f0981612ecd565b9050919050565b7f4552433732313a20746f6b656e20616c7265616479206d696e74656400000000600082015250565b6000612f46601c83611aec565b9150612f5182612f10565b602082019050919050565b60006020820190508181036000830152612f7581612f39565b905091905056fe416e204e465420772f20494420257320686173206265656e206d696e74656420746f2025734142434445464748494a4b4c4d4e4f505152535455565758595a6162636465666768696a6b6c6d6e6f707172737475767778797a303132333435363738392b2fa2646970667358221220a9d48fde9c913442d464710a1d59412e683e94b041151fa61c53f14ad144cefb64736f6c63430008110033",
  "linkReferences": {},
  "deployedLinkReferences": {}
}